:100000000C94A5020C946B0A0C94EC020C94EC0278
:100010000C94EC020C94EC020C94EC020C94EC02A8
:100020000C94EC020C94EC020C945B210C942D22A9
:100030000C94D2170C94EC020C94EC020C94EC028D
:100040000C94EC020C94EC020C94EC020C94EC0278
:100050000C94EC020C941F180C94EC020C94EC021F
:100060000C94EC020C94EC020C94EC020C94EC0258
:100070000C94EC020C94EC020C94EC020C94EC0248
:100080000C94EC020C94EC020C94EC020C94EC0238
:100090000C94EC020C94EC020C94EC020C94EC0228
:1000A0000C94EC020C94EC020C94EC02B90DB90D1A
:1000B000EB0DEB0D380E560E770F770F610EF60E27
:1000C000070F070F670F770F770F700F17101710B5
:1000D0002910291020102910291029101710171085
:1000E00025102910291025109A22C122B923C122D6
:1000F000B9230D233023B923872396232B00140023
:100100001A0008001500170035000400160007004B
:1001100009000A00E1001D001B000600190005008F
:100120000751E000E200E30003512C002A00130015
:1001300012000C0018001C00340033000F000E00E9
:100140000D000B00280038003700360010001100A9
:100150004F0052005100500004512C002B0014009D
:100160001A00090013000A003500040015001600EB
:1001700017000700E1001D001B0006001900050024
:100180000551E000E200E30003512C002A00330097
:100190001C0018000F000D00340012000C000800B5
:1001A00011000B00280038003700360010000E0048
:1001B0004F0052005100500004512C002B0034001D
:1001C0003600370013001C00350004001200080040
:1001D00018000C00E100330014000D000E001B009D
:1001E0000551E000E200E30003512C002A000F005B
:1001F000150006000A00090038001600110017005B
:100200000B00070028001D0019001A00100005004F
:100210004F0052005100500004512C0029001E02D2
:100220001F022002210222024C003A003B003C0047
:100230003D003E00390040004100420043004400C0
:10024000C25CC35CC45CCB5CCC5C2C004C00270261
:100250002602250224022302310230022F022E023E
:100260002D023F000100010001006402320245003E
:10027000AE00A900AA00AB0005512C0035001E00FD
:100280001F002000210022004C003A003B003C00EF
:100290003D003E0001004000410042004300440098
:1002A0000100010001000100010001004C002700D5
:1002B0002600250024002300310030002F002E00EE
:1002C0002D003F00010001000100640032004500E4
:1002D000AE00A900AA00AB00010001000100005C13
:1002E00001000100010001000100010001001D5C8E
:1002F0001E5C135C0100010001000100010001000F
:100300000100010001000100010001004C0001009A
:100310000100010001000100010001001250115014
:1003200010500A5C01000100010001000100010001
:1003300001000100010001000100010001000100B5
:1003400001000100010001000100010001000100A5
:100350000100010001000100010001000100010095
:100360000100010001000100010001000100010085
:100370000100010001000100010001000100010075
:100380000100010001000100010001000100010065
:100390000100010001000100010001000000000057
:1003A0000000DE5C005C0000000000000000015C5A
:1003B000000000000000000000000000000000003D
:1003C0000000000000000000000000000000005CD1
:1003D000DE5C00000000000000000000015C000086
:1003E000000000000000000000000000000000000D
:1003F00000000000000000000000000004033000C6
:1004000000001C034C0065007400730020005300C2
:1004100070006C006900740020007600320000005B
:10042000160357006F006F007400700061007400C5
:100430006F006F00740000000403090409023B0010
:10044000020100A0FA0904000001030101000921D2
:10045000110100012240000705810308000A090478
:1004600001000103000000092111010001228100A7
:100470000705820320000A1201100100000008771E
:100480006F020002000102030105010902A10185BA
:10049000020901A100050919012905150025019589
:1004A0000575018102950175038101050109300976
:1004B000311581257F95027508810609381581253A
:1004C0007F950175088106050C0A38021581257F84
:1004D000950175088106C0C005010980A101850349
:1004E00019012AB700150126B70095017510810082
:1004F000C0050C0901A101850419012AA0021501FA
:1005000026A002950175108100C005010906A10110
:10051000050719E029E715002501950875018102F5
:100520009501750881010507190029FF150026FFAF
:1005300000950675088100050819012905950575BE
:10054000019102950175039101C011241FBECFEFE7
:10055000DAE0DEBFCDBF04B603FE27C080916302A0
:1005600090916402A0916502B09166028730904B31
:10057000A740B04BD1F41092630210926402109223
:1005800065021092660214BE84B7877F84BF0FB6DF
:10059000F894A89580916000886180936000109223
:1005A00060000FBEE0E0F8E3099511E0A0E0B1E0E3
:1005B000EEEBF8E402C005900D92A839B107D9F727
:1005C00022E0A8E9B1E001C01D92A336B207E1F72D
:1005D0000E94991E0C945D240C9400000C94C50597
:1005E00081E0089581E008950C94F20208950C943E
:1005F000F6021F93CF93DF9300D000D01F92CDB7A8
:10060000DEB749835A836B833091B70189819A8120
:10061000311114C0662359F0222349F00E94551568
:10062000182F682F89819A810E94FC1403C00E94B0
:100630002815182F69817A81812F04C00E945515D1
:1006400069817A810F900F900F900F900F90DF913A
:10065000CF911F910C94AB03FC01262F4081518157
:100660006281738184810C94F902CF93DF93EC0152
:1006700060E00E942C03BE01DF91CF910C94F70241
:100680000E948716811102C00E9427170C94EE0267
:100690000C94C30508950C944A0381E008950C94CA
:1006A0004D03CF93C82F0E944B038C2F0E944F0302
:1006B000CF91089508950E9405100E945A032FEFCC
:1006C00084E39CE0215080409040E1F700C00000AE
:1006D0000C9445180F931F93CF93DF93EC0161E0C7
:1006E0000E942C038C01BE010E94F402882349F170
:1006F000BE01C8010E941408882319F1BE01C80177
:100700000E9466088823E9F0BE01C8010E94910991
:100710008823B9F08A81882369F001158CE51807D0
:1007200031F00E3D1C4531F40E9427170AC00E948B
:100730005B0307C0CE01DF91CF911F910F910C9405
:10074000F00280E0DF91CF911F910F91089580E03A
:1007500090E00895089520E3829FC0011124FC01D8
:1007600026E0729FE00DF11D1124E60FF11DEE0F42
:10077000FF1FE450FF4F859194910895880F991FB2
:10078000FC01E450FC4F859194910895CF93DF9341
:100790000E94AB030E94DE04EC018115904508F035
:1007A00041C0C11580E4D80708F0D1C0C83ED105CA
:1007B00010F5C03ED10508F0FDC0C83AD10578F467
:1007C000C53AD10508F0A2C0C130D10509F4F2C084
:1007D00008F4EEC0C430D10508F0ECC0E9C0CF3B4E
:1007E000D10508F49BC0C03CD10508F4E1C0CE019E
:1007F000805C91099EC0C11590E2D90758F4C115DB
:1008000021E0D20708F0D6C0C03FD10508F4D0C01F
:10081000D065D0C0C11580E3D80708F08EC0CE01E6
:100820009F7087C0C11595E5D90708F043C0C11571
:1008300024E5D20708F0A2C0C11582E5D80708F563
:10084000C11591E5D90708F085C0CE0174E09695F1
:1008500087957A95E1F783709C2F937021E030E0C3
:1008600002C0220F331F9A95E2F73C68382BCF70F5
:10087000C695C69580E2C89FE0011124C22BD32BF8
:1008800099C09E01237033278C2F86958695C115BC
:10089000D34508F064C0C1E0D0E002C0CC0FDD1F3A
:1008A0002A95E2F720E2829FC0011124C82BD92BA0
:1008B000DC6880C0C11529E5D207A0F4C11588E520
:1008C000D80708F060C0C11596E5D90708F070C0D8
:1008D0008C2F0E9472058F71C82FD0E0DC2FCC279F
:1008E000D06268C0C1152AE5D20708F451C0CE0114
:1008F00090568115904208F05BC08D2F8F710E9439
:100900007205DD27D0628F71D82B54C0C55AD0E054
:10091000C45BDE4FC881D0E0D0644CC0C85AD0E080
:10092000CC0FDD1FC25EDE4F0990D881C02DD4648C
:1009300041C00E94BE03EC013DC0CE019927D3FF08
:1009400003C0EC01D86C36C0EC01D06C33C0DF7052
:10095000D06A30C0DC2FCC27C16FD06A2BC0C1E079
:10096000D0E002C0CC0FDD1F2A95E2F720E2829F83
:10097000C0011124C82BD92BDA681CC0DC2FCC276E
:10098000C46FD06A17C0DC2FCC27C06FD06A12C0EA
:100990008C2F8F700E94720594E0D695C7959A951A
:1009A000E1F7CF70D0E0DC2FCC27D069C82B02C094
:1009B000C0E0D0E0CE01DF91CF910895823891055B
:1009C00069F1B0F48133910509F46DC048F48932BE
:1009D000910509F463C08A32910509F469C008954C
:1009E0008533910509F455C089339105B9F008950F
:1009F000833E910569F138F4803E9105B1F0823E65
:100A0000910509F10895863E9105A9F1873E91056A
:100A1000B9F1843E910509F064C023C020915402CD
:100A200020FD4FC021FD4DC008958091540280FDEE
:100A300044C08091550280FF44C08091540284FDDF
:100A400042C083EE4DC08091540282FF38C0F5CF82
:100A50008091540282FD33C08091550280FD31C0E7
:100A6000ECCF8091550281FF32C08091540284FD09
:100A70002AC087EE35C08091540283FF26C0F5CF8F
:100A80008091540283FD21C08091550281FD1FC0D9
:100A9000ECCF8091540285FD1CC01DC08091540292
:100AA00085FD19C016C08091540286FD16C017C07E
:100AB0008091540286FD13C010C089E311C082EEFC
:100AC0000FC080EE0DC080E00BC086EE09C084EE42
:100AD00007C089E205C085E303C08AE201C081E363
:100AE00090E008959091540292FF0DC0282F287134
:100AF000283019F4877F846006C0282F24712430A1
:100B000011F48B7F886093FF0DC0282F2871283146
:100B100019F4877E846106C0282F2471243111F4D2
:100B20008B7E88612091550220FF0DC0382F3871CF
:100B3000383019F4877F816006C0382F3171313029
:100B400011F48E7F886021FF0DC0282F2871283175
:100B500019F4877E816106C0282F2171213111F49B
:100B60008E7E886194FD877E0895E82FF0E0EA5B31
:100B7000FD4F80810895089580EA8A95F1F70895E0
:100B800008950C94C0050C94C1050C94C0050895FB
:100B9000CF93DF930E94350780910001809100017F
:100BA000811102C094E001C090E090934F0284E074
:100BB000891B80934E02A5E5B1E049E551E061E073
:100BC00070E08D91E82FE295EF70F0E021A18F7039
:100BD000EB0102C0CC0FDD1F8A95E2F7CE019C2FFE
:100BE0009095922391A392A1892B82A34A175B0728
:100BF00041F7AFE4B1E045E551E061E070E08D918F
:100C0000E82FE295EF70F0E021A18F70EB0102C0B8
:100C1000CC0FDD1F8A95E2F7CE019C2F9095922391
:100C200091A392A1892B82A34A175B0741F7EEE3B8
:100C3000F2E0A6E4B2E086E492E011921D928E17F3
:100C40009F07D9F784E00E94DF060E944003DF91EE
:100C5000CF910C943F070E9416078823F1F08091F2
:100C60004E0290E08A5B9D4F0E945207811111C095
:100C7000809198018F5F80939801863060F0E091B9
:100C80004E02F0E0EA5BFD4F108211821282138265
:100C900002C0109298010C94480380914F0290E09A
:100CA0008A5B9D4F0E946D070C94C7056F927F92DF
:100CB0008F929F92AF92BF92CF92DF92EF92FF926C
:100CC0000F931F93CF93DF9385E5882E81E0982EB5
:100CD0000EE312E092E4A92E92E0B92E712CCC24FE
:100CE000C394D12CF40181914F01C82FC295CF70CC
:100CF000D0E099A18F70760101C0EE0C8A95EAF7D9
:100D0000892F8E2989A38AA16E2C609486218AA3BB
:100D10000E94BC05EFE4F1E040E050E020E03191BA
:100D2000A32FA295AF70B0E090968C9190E03F70A9
:100D300002C0959587953A95E2F780FD07C08C2D06
:100D4000042E01C0880F0A94EAF701C080E0282B26
:100D50004F5F5F4F4630510511F789A1682269A2A4
:100D60008AA1E82AEAA2F8018081281719F02083D5
:100D700081E001C080E0782A0F5F1F4FA016B10606
:100D800009F0B0CF60914F0270E06A5B7D4F272D74
:100D900044E08EE392E00E94E0060E942B06872D3D
:100DA000DF91CF911F910F91FF90EF90DF90CF9047
:100DB000BF90AF909F908F907F906F90089508950F
:100DC000FF920F931F93CF93DF938C01F62ED72FB3
:100DD000C42F222349F081E080939B010E940418D4
:100DE00090939A018093990180919B018823C1F08F
:100DF0008091990190919A010E941018069780F0B5
:100E0000EF2DFD2FD8014C2F50E0CD01801B910B11
:100E1000841795071CF48D918193F7CF10929B0155
:100E2000DF91CF911F910F91FF90089580919C01C8
:100E3000811112C08091D80080618093D8008AE12E
:100E40008A95F1F700C08091D90080FD02C082E050
:100E500001C081E080939C0181E090919C019130E0
:100E600009F080E008950C9416070E9433078093E0
:100E700000010E94160781110C94460708950E94F4
:100E80001607811102C00C944C07089561E070E0D0
:100E900081E091E00C941D0A61E070E081E091E056
:100EA0000C94240ACF93DF93D82FC92F0E94BC0A39
:100EB000892B79F4ED2FFC2F80E090E0DC01A25625
:100EC000BE4F2C912193019684309105B9F781E0B2
:100ED00001C080E0DF91CF91089520E030E0FC0177
:100EE0004191CF01F901E256FE4F40832F5F3F4F02
:100EF00024303105A1F70895AF92BF92CF92DF92CF
:100F0000EF92FF920F931F93CF93DF937C015B01CE
:100F1000C42FD22FFC0182818823F9F04093A401D1
:100F20000E9404189093A3018093A20180E28C0F89
:100F3000883008F06EC0C77081E001C0880FCA9584
:100F4000EAF7DF91CF911F910F91FF90EF90DF9023
:100F5000CF90BF90AF900C94750D8091A401481371
:100F600035C08091A2019091A3010E9410186C01DC
:100F7000B701C5010E94BE12C816D90638F510E2A5
:100F80001D0FCD17B9F080E28C0F883040F4C77088
:100F900081E001C0880FCA95EAF70E947C0D1830E5
:100FA00058F581E09D2F977001C0880F9A95EAF758
:100FB0000E94750D802F0E94620D183050F5D77079
:100FC00081E001C0880FDA95EAF70AC080E28C0F51
:100FD0008830F8F4C77081E001C0880FCA95EAF73D
:100FE000DF91CF911F910F91FF90EF90DF90CF9005
:100FF000BF90AF900C947C0D802FDF91CF911F910B
:101000000F91FF90EF90DF90CF90BF90AF900C9436
:10101000620DDF91CF911F910F91FF90EF90DF90C4
:10102000CF90BF90AF9008950F939C01CB01233FC9
:101030004CE5340731F188F4283DFCE53F07D9F051
:10104000293D4CE5340779F1273D3C45A9F506E2F9
:1010500021EE41EE67ED7CE52BC0253FFCE53F0727
:10106000E1F0A8F0263F3C4539F507E225EE46EED3
:1010700066EF7CE51DC007E225EE45EE68ED7CE5F8
:1010800017C006E221EE40EE63EF7CE511C007E2F7
:1010900025EE44EE64EF7CE50BC006E221EE42EE65
:1010A00065EF7CE505C008E221E045EE69ED7CE5F1
:1010B0000E947C0780E008C0FC018281882319F02F
:1010C0001092A40101C081E00F910895CF93DF93A6
:1010D000EC01FB018281882309F41FC1C230FCE5C9
:1010E000DF0708F41BC1C6319CE5D90738F09E0123
:1010F0002A5F3C452930310508F010C10E949A163C
:101100009093550280935402C031ECE5DE0709F458
:10111000C3C008F041C0C8308CE5D80709F49AC0B4
:10112000F0F4C430ECE5DE0709F487C068F4C2309F
:101130008CE5D80709F477C0C330DC4509F0E3C07B
:1011400080915402826076C0C630ECE5DE0709F477
:101150006EC008F07BC08091540288606BC0CC30B8
:101160008CE5D80709F485C068F4CA30ECE5DE07E1
:1011700009F474C008F079C00E94051080915402EF
:10118000806858C0CE308CE5D80709F476C008F0E6
:101190007FC0809154028BC0CB3FECE5DE0709F4A1
:1011A0004FC018F5C3318CE5D80709F47DC078F439
:1011B000C131ECE5DE0709F473C0C231DC4509F04A
:1011C000A2C00E940510809154028F7733C0C531B0
:1011D0008CE5D80709F472C008F486C0CA3FDC4524
:1011E00009F091C0809155023EC0CF3FFCE5DF077A
:1011F00009F45FC058F4CD3F9CE5D90709F444C019
:1012000008F43FC08091550282602DC0C130FDE5D9
:10121000DF0709F475C008F45DC0C230DD4509F090
:1012200072C080E06EC080915402816003C08091E2
:10123000540280618093540266C08091540211C0B0
:10124000809155028260809355025DC08091540266
:101250008062F0CF809154028064ECCF8091540280
:1012600088608460E7CF8160EECF809154028E7FEA
:10127000E1CF809154028D7FDDCF80915402877F32
:10128000D9CF8091550218C0809155028D7FDBCF58
:10129000809154028F7ECECF809154028F7DCACF31
:1012A000809154028F7BC6CF80915402877F8B7FC1
:1012B000C1CF809155028D7F8E7FC5CF8091540222
:1012C00082FB222720F991E0922790FB82F990FB84
:1012D00083F9B0CF80915502982F909591708E7FB1
:1012E000892B90FB81F9AFCF0E94051080915402A9
:1012F00087FB222720F991E0922790FB87F99ACF6C
:1013000081E00E94291780915402909155020E9419
:10131000AB160E94051080E001C081E0DF91CF9103
:101320000895CF93DF9386319C4541F5EB010E94F0
:10133000D615982F8A812091090130910A018823BE
:1013400079F09A7A81E009F480E08093A501911107
:1013500002C069E201C065E3C9010E9470170AC0BA
:101360008091A501811102C069E201C065E3C90154
:101370000E9472170E94241680E001C081E0DF9174
:10138000CF9108958EE1489B02C08150E1F7489BC0
:10139000FECF0895589880E28A95F1F7589A0895FB
:1013A000FC012AE02A95F1F728E090E080E031E0A6
:1013B00040E14A95F1F7880F489B02C0816093276E
:1013C00000C0000040E14A95F1F7215089F720E183
:1013D0002A95F1F729B100C0000030E13A95F1F704
:1013E000217092272081920F90830895EF92FF92AF
:1013F0000F931F93CF93DF931F92CDB7DEB7198260
:101400008C017C01E60EF11C0E151F0551F00E94A7
:10141000C209CE0101960E94D009F80181938F0183
:10142000F3CF81E09981911180E00F90DF91CF910E
:101430001F910F91FF90EF9008959093A7018093D3
:10144000A601509A589A08959093A7018093A601F7
:101450005098589AE89AE9E6F0E080818C7F808382
:101460000895615091E001C0990F6A95EAF720E074
:1014700031E0992361F0492F482319F0589A232726
:1014800001C0589840E24A95F1F79695F2CF222391
:1014900011F0589A01C0589880E28A95F1F758984F
:1014A0000895FF920F931F93CF93DF93EC018C016C
:1014B000060F111DC017D10741F0F9900E94CA090B
:1014C00068E08F2D0E94310AF5CFDF91CF911F91F7
:1014D0000F91FF9008951F920F920FB60F92112453
:1014E0002F933F934F935F936F937F938F939F932C
:1014F000AF93BF93CF93DF93EF93FF935898509A96
:10150000C091A601D091A7016D81662321F08E8143
:101510009F810E94510A0E94CA0980E18A95F1F7D1
:1015200058985098589A80E18A95F1F76A81662315
:1015300051F08B819C810E94F609E881F98181112B
:1015400004C082E003C0E881F98188E080830E94C2
:10155000C209FF91EF91DF91CF91BF91AF919F9120
:101560008F917F916F915F914F913F912F910F904C
:101570000FBE0F901F901895CF93DF93C091A601D7
:10158000D091A701F894509A589885E08A95F1F780
:1015900000005098589A80E28A95F1F7489B0AC05B
:1015A000509A589AE881F98181E08083789481E0AB
:1015B00090E02CC06D81662381F08E819F810E9416
:1015C000F60981110AC0509A589AE881F98182E09F
:1015D0008083789482E090E019C00E94C20980E282
:1015E0008A95F1F75898509A80E18A95F1F76A81C7
:1015F000662321F08B819C810E94510A0E94CA09B6
:10160000E881F9811082789480E090E0DF91CF91B9
:1016100008959093AD018093AC010895E091AC01E1
:10162000F091AD01309721F00190F081E02D099407
:1016300080E00895E091AC01F091AD01309721F088
:101640000280F381E02D09940895E091AC01F091BE
:10165000AD01309739F022E0DC012C930480F58154
:10166000E02D099408952091AA013091AB0128172B
:10167000390771F09093AB018093AA01E091AC011E
:10168000F091AD01309721F00680F781E02D0994AB
:1016900008952091A8013091A9012817390771F008
:1016A0009093A9018093A801E091AC01F091AD0164
:1016B000309721F00084F185E02D0994089585B7D5
:1016C000806885BF85B7806885BF089508950C94AC
:1016D000660B0C94670B0C94660B0C94660B0E94C3
:1016E0005F0B0E946B0B0C94690B0C9416070E9405
:1016F000FB170E94C8050E9456180C946D0BAF9200
:10170000BF92CF92DF92EF92FF920F931F93CF93EE
:10171000DF93CDB7DEB72A970FB6F894DEBF0FBEC2
:10172000CDBF0E9456060E94750B811111C08FEF2C
:1017300089838A831B820E9404188160782F9D838D
:101740008C8349815A816B818D810E94170C40C026
:101750008FEAA82E81E0B82E00E010E0C02E802F86
:101760000E94B505E82EF501D1905F01D82631F42D
:101770000F5F1F4F0830110589F7D9CF80912302E1
:1017800081FD0E94BB0580E0FF24F3949D2D9F21E5
:10179000D1F08E83CF82EF2081E009F480E088874A
:1017A0000E9404188160782F9A8789874E815F8113
:1017B00068858A850E94170CF801E155FE4F8081EB
:1017C000F826F08205C08F5FFF0C8630F9F6D0CF87
:1017D0000E94051A0E940E0B9091AE018917B1F07C
:1017E0000E940E0B8093AE012A960FB6F894DEBFCE
:1017F0000FBECDBFDF91CF911F910F91FF90EF9062
:10180000DF90CF90BF90AF900C9451032A960FB603
:10181000F894DEBF0FBECDBFDF91CF911F910F9126
:10182000FF90EF90DF90CF90BF90AF900895CF934F
:10183000DF93CDB7DEB72B970FB6F894DEBF0FBEA0
:10184000CDBF4F83588769877A878B87DE011196D2
:1018500086E0FD0111928A95E9F785E0FE01379651
:1018600001900D928A95E1F749815A816B817C81C3
:101870008D819E810E94C1122B960FB6F894DEBF17
:101880000FBECDBFDF91CF910895FC018081918182
:101890000E9497150895CF93882309F4A9C0C82FF3
:1018A0008238C1F40E940E0B81FDA2C069E38091D1
:1018B000090190910A010E9470170E9424162FEFCF
:1018C00081EE94E0215080409040E1F700C000009C
:1018D00069E319C0833801F50E940E0B80FD88C0B2
:1018E00063E58091090190910A010E9470170E949E
:1018F00024162FEF81EE94E0215080409040E1F7D4
:1019000000C0000063E58091090190910A010E94E6
:101910007217CF910C9424168438C1F40E940E0BD8
:1019200082FD66C067E48091090190910A010E94DE
:1019300070170E9424162FEF81EE94E02150804012
:101940009040E1F700C0000067E4DDCF8CEF8C0F22
:10195000813AF8F48C2F0E94A31C811149C06C2F8E
:101960008091090190910A010E943A17882349F059
:101970006C2F8091090190910A010E9472170E94B8
:1019800024166C2F8091090190910A010E94701712
:10199000C0CF80E28C0F883048F4C77081E001C06E
:1019A000880FCA95EAF70E94D915B3CFEBE5EC0F83
:1019B000E33040F4F0E0E557FE4F808190E0CF91B6
:1019C0000C94330BE8E5EC0FE73150F4F0E0EE0F48
:1019D000FF1FE35AFE4F80819181CF910C94490BF8
:1019E000C03F30F08C2F0E94FA18CF910C94E71969
:1019F000CF910895882309F464C0823879F40E9455
:101A00000E0B81FF5EC069E38091090190910A018C
:101A10000E9470170E94241669E310C08338B1F445
:101A20000E940E0B80FF4DC063E5809109019091EB
:101A30000A010E9470170E94241663E58091090133
:101A400090910A010E9472170C942416843879F43C
:101A50000E940E0B82FF35C067E4809109019091CE
:101A60000A010E9470170E94241667E4E7CF9CEFDA
:101A7000980F913A10F4682FE1CF90E2980F9830C8
:101A800050F4877091E001C0990F8A95EAF7892F89
:101A90000E94DF15D9CF9BE5980F933020F480E0AA
:101AA00090E00C94330B98E5980F973120F480E088
:101AB00090E00C94490B803F20F00E9462190C9436
:101AC000E7190895CF93C82F0E944B0CC93349F4EE
:101AD0002FEF87EE93E0215080409040E1F700C067
:101AE00000008C2FCF910C94FA0C882321F00E94D7
:101AF000D9150C9424160895882321F00E94DF152F
:101B00000C9424160895CF92DF92EF92FF920F93D8
:101B10001F93CF93DF937C01062FC72FFC01158104
:101B200012951F70D281D1110E94F6150E94CF1517
:101B3000882399F0DD2389F08C2F807F803421F079
:101B400080E2800F883048F082E00E946E160E948A
:101B5000CF1591E0D82ED92601C0D12CCC2EC2941D
:101B60008FE0C8228C2D90E0FC01EA5AFF4F0C94C4
:101B700001248C2F807FCF70882311F0C295C07F05
:101B8000DD2399F0CC2309F48DC180E2800F8830E9
:101B900010F0011104C08C2F0E94D91503C08C2FA6
:101BA0000E94E9150E9424167DC1802F0E94FA0C24
:101BB000CC2309F49CC180E2800F883010F0011121
:101BC00004C08C2F0E94DF1503C08C2F0E94EF15DC
:101BD0000E9424168CC18C2F807FCF70803211F030
:101BE000C295C07F002319F00130C9F022C0DD2367
:101BF00071F0112341F0113031F40E9409168C2B41
:101C00000E94111674C10E9409168C2B1DC011234D
:101C100019F0113009F46BC10E941A1625C0DD239A
:101C200021F0163008F063C10EC0153008F05FC116
:101C30001BC0DD2361F0112331F0F701858180FFA6
:101C400031C18F7085838C2F0E94750D50C1112377
:101C500059F0093309F037C1FFEF27EE83E0F15067
:101C600020408040E1F72DC18C2F0E947C0D3FC1A8
:101C70008C2F86958695837019F0813061F037C17D
:101C8000DD2321F0802F9C2F937002C080E090E034
:101C90000E94330B34C1DD2321F0802F9C2F9370E1
:101CA00002C080E090E00E94490B29C1802FDD2313
:101CB00019F00E94FA1802C00E9462190E94E719E6
:101CC0001EC18C2F837009F045C0D11114C1402F63
:101CD000429546954770440F440F602F6F70862FD2
:101CE00090E0A0E0B0E0042E04C0880F991FAA1F66
:101CF000BB1F0A94D2F704FF10C00FE010E020E0F1
:101D000030E004C0000F111F221F331F4A95D2F785
:101D1000009510952095309503C000E010E09801E3
:101D2000C695C695C370BC01CD01602B712B822B6B
:101D3000932BC23049F058F4C13019F00E941214AC
:101D4000DAC00E940014D7C00E942414D4C00E949C
:101D5000FE13D1C0DD2319F08C2F817001C0869550
:101D6000882309F4C8C0402F429546954770440F18
:101D7000440F602F6F70862F90E0A0E0B0E0042E3B
:101D800004C0880F991FAA1FBB1F0A94D2F704FF33
:101D900010C00FE010E020E030E004C0000F111F81
:101DA000221F331F4A95D2F7009510952095309544
:101DB00003C000E010E09801C695C695C370BC0151
:101DC000CD01602B712B822B932BC23049F058F43C
:101DD000C13019F00E94D7148EC00E94C5148BC068
:101DE0000E94E91488C00E94381485C0CF70DD239A
:101DF00039F08C2F0E945E14802F0E94750D7BC0DD
:101E0000802F0E947C0D8C2F0E947F1474C0023F93
:101E100001F128F4003F41F0013FA1F03FC0033F32
:101E2000F9F0043F39F13AC0DD2341F0153008F0F4
:101E30005EC08C2F8F710E94A41459C0163008F018
:101E400056C0F7CFDD2339F08C2F8F710E945E14BE
:101E50004EC0DD23C9F38C2F8F710E947F1447C0C1
:101E6000DD2329F08C2F8F710E94491440C00E94FD
:101E700044143DC0DD2349F0CF718C2F0E945E14C5
:101E800063E08C2F0E94591632C081E00E946E16CA
:101E9000123068F182E00E946E1629C0DD2331F015
:101EA000112391F2802F0E944B0C21C0112399F233
:101EB000093349F49FEFE7EEF3E09150E040F04042
:101EC000E1F700C00000802F0E94FA0C10C04C2FD8
:101ED0004F70602FC7010E94A7030E946F130FC0AD
:101EE0004C2F4F70602FC7010E94AA0308C088EFD3
:101EF0008C0D843020F40E940E0B0E945103DD20D3
:101F0000C9F00E94CB1580FD15C0F70112820E9416
:101F1000C5150E945E14C7010E94BB0F0E94C51523
:101F2000DF91CF911F910F91FF90EF90DF90CF90B5
:101F30000C947F14DF91CF911F910F91FF90EF9040
:101F4000DF90CF9008950F931F93CF93DF93EC0111
:101F5000688179818A810E94A2158C010E94FB14FC
:101F60000E94EC13B801CE010E94830DDF91CF9146
:101F70001F910F910895CF93DF93EC019881898190
:101F80002B813C81232B31F08F3F31F481E09F3F47
:101F900019F403C081E001C080E080FD19C0CE01CA
:101FA0000E946A0381110CC00E94CF15882381F022
:101FB0008A81882369F082E0DF91CF910C946E16BC
:101FC000CE010E94A30FCE01DF91CF910C94350377
:101FD000DF91CF9108950E94F6150E9406160E9487
:101FE00024160E94181B0E94E71980E090E00E94CE
:101FF000330B80E090E00C94490B809109019091A3
:102000000A010E9474170C94EB0F0E94E6150C94C1
:10201000FD0FE92FE295EF704E2F50E0FA01329755
:10202000EE30F105B0F4EA59FF4F0C940124803FE3
:1020300091F018F4883E68F40EC0843F51F40BC050
:10204000883E48F0813F29F406C093FB882780F939
:10205000089580E0089581E008950E9497150E94F8
:1020600009100895CF93DF9300D000D01F92CDB711
:10207000DEB70F900F900F900F900F90DF91CF91E0
:102080000895CF93DF9300D000D000D0CDB7DEB756
:1020900026960FB6F894DEBF0FBECDBFDF91CF916D
:1020A00008951F93CF93DF93C091B80116E08091FC
:1020B000B901C81799F0D0E01C9FF0011D9FF00DE9
:1020C0001124E654FE4F40815181628173818481E5
:1020D00095810E9441102196C770E9CFDF91CF9181
:1020E0001F9108954091EA015091EB016091EC013C
:1020F0007091ED018091EE019091EF010C944110EF
:102100000F931F93CF93DF938091EF0182958F7090
:1021100009F05DC08091EC01882309F458C08091DA
:10212000B8011091B9016091EA017091EB01C09181
:10213000ED01D091EE0191E06F3F09F090E0292F81
:1021400006E0811709F443C0209721F07F3F21F07A
:1021500030E003C031E001C0322F90E030FD34C0E8
:10216000089FF001099FF00D1124DF01A654BE4F16
:1021700011963C911197371327C03C91361324C018
:1021800012963C91129731111FC013964D915C919C
:1021900014974C1B5D0B483C5105B0F48091EF0146
:1021A0008F7080618093EF01E154FE4F80818F70CA
:1021B000806180838AEE91E00E94BB0FDF91CF9116
:1021C0001F910F910C94511001968770BACFDF9137
:1021D000CF911F910F9108959F92AF92BF92CF928E
:1021E000DF92EF92FF920F931F93CF93DF93CDB7C0
:1021F000DEB761970FB6F894DEBF0FBECDBF8C017E
:1022000085E0F801DE011D9601900D928A95E1F7B7
:10221000F80140815181E2809091EA016091EB01E7
:102220002091ED013091EE012115310531F06F3F24
:1022300031F481E09F3F19F403C081E001C080E0E8
:10224000F82FF1709F2E80FD46C1F801A380B48065
:102250008AEEC82E81E0D82EF090EC01F501E21B49
:10226000F30BFF2009F4DFC08091EF01E83CF1059A
:1022700008F09BC0282F207F09F052C0561313C0CE
:10228000491311C0FE2CE1100EC08F708061809345
:10229000EF010E947210C6010E94BB0F8091EF01F6
:1022A000F801858358C1AB2831F05F3F31F481E0FC
:1022B0004F3F19F403C081E001C080E080FD03C0FE
:1022C00081E08E2502C080E090E0F82FF170FF2EB3
:1022D00080FF1CC08091B8012091B90136E08217BF
:1022E00009F417C190E0389FF001399FF00D1124D7
:1022F000E654FE4F6181561306C06081461303C049
:102300006281E61203C001968770E9CFFE2CEE20B1
:1023100009F421C18091EF0181608093EF015AC0DF
:10232000561306C0491304C0E11002C0F8019FC053
:102330004D875E878D859E850E942D10882379F1BB
:10234000EE2069F12091EF01822F82958F7090E04D
:10235000029774F08091EA019091EB0198878F8346
:102360001986BB86AA862C87CE0107960E94BB0FD2
:1023700086E0F801AAEEB1E001900D928A95E1F7AE
:102380000E9480100E9472100DC0561729F14D87CF
:102390005E878D859E850E942D1081112CC0C801FD
:1023A0000E94BB0FFF24F394D6C0282F207F69F72B
:1023B0007A2DB98AA88A6E2D89890E9432108AEEF8
:1023C00091E00E94BB0F86E0F60111928A95E9F731
:1023D0000E947210F12CBFC04913D9CFE110D7CFA2
:1023E000F8018583C8010E94BB0F86E0F6011192B7
:1023F0008A95E9F7B0C0EE2091F22091EF01822F8B
:1024000082958F7090E002970CF4B2CF8091EA0130
:102410009091EB019A8389831B82BD82AC822E83CB
:10242000CE010196A3CFE83CF10508F047C0FE2C91
:10243000EE2009F4B4CF561330C049132EC02091BA
:10244000EF0120FD21C0822F82958F70482F50E030
:1024500041155105C9F0F80125834F30510541F070
:102460008F5F982F9295907F822F8F70892B858315
:10247000C8010E94BB0F86E0F801AAEEB1E001900E
:102480000D928A95E1F742C086E0F801AAEEB1E02C
:1024900001900D928A95E1F75EC04D875E878D852C
:1024A0009E850E942D10811163CF8091EF01816084
:1024B0008093EF01C8010E94BB0F4DC07A2DB98AED
:1024C000A88A6E2D89890E94321086E0F601119249
:1024D0008A95E9F71BC0EE2009F461CF4D875E872E
:1024E0008D859E850E942D10F82E882309F457CFE4
:1024F00086E0F801AAEEB1E001900D928A95E1F72D
:102500008AEE91E00E94450C0E9480100E94721099
:1025100022C04D875E878D859E850E949715292F45
:1025200022952F70223028F49F7039F0811105C058
:102530000BC0243028F49F7049F4805E883020F06E
:10254000C8010E94BB0F9F2CF92C05C0F801958192
:10255000907F99F7F9CF8F2D61960FB6F894DEBF73
:102560000FBECDBFDF91CF911F910F91FF90EF90E4
:10257000DF90CF90BF90AF909F90089588EC90E04F
:1025800008951F93CF93DF93CDB7DEB72C970FB687
:10259000F894DEBF0FBECDBF4F83588769877A8717
:1025A0008B879C87CE0107960E94EC108823D1F080
:1025B0009F8188852A853B85232B31F08F3F31F41D
:1025C00081E09F3F19F403C081E001C080E080FDFD
:1025D00047C04F81588569857A858B859C850E9487
:1025E00041103EC086E0FE013796DE011196019053
:1025F0000D928A95E1F7FF81E8856A857B856115F3
:10260000710531F0EF3F31F481E0FF3F19F403C071
:1026100081E001C080E080FD23C02091B90130E05D
:10262000C9010196877099274091B80150E084173D
:102630009507F1F1F983EA837D836C8396E0929F9D
:10264000D001939FB00D1124A654BE4FFE013196C8
:1026500001900D929A95E1F78093B9010E94511073
:1026600016E08091B8019091B901891771F1189F16
:10267000C001112486549E4F0E94EC10882329F13A
:10268000E091B8011E9FF0011124E654FE4F4081F5
:10269000518162817381848195810E944110809172
:1026A000B80190E00196877099278093B801D9CF3F
:1026B0000E9405101092B9011092B801EAEEF1E003
:1026C00086E0DF011D928A95E9F72C960FB6F89403
:1026D000DEBF0FBECDBFDF91CF911F910895EF9266
:1026E000FF920F931F93CF93DF938C01892B09F4F3
:1026F0006CC0F12CEE24E394E8012196F80184915A
:10270000843740F4843008F051C0813081F0823049
:1027100019F15BC0853709F444C0A8F19CE7980F14
:10272000903708F052C08F770E94FA0C41C00E5FBC
:102730001F4FFE01849190E2980F983050F48770FB
:10274000FE2D01C0FF0F8A95EAF78F2F0E94F91521
:1027500014C00E944B0C2DC00E5F1F4FFE018491D0
:1027600090E2980F983060F48770FE2D01C0FF0F43
:102770008A95EAF78F2F0E94FF150E94241619C030
:102780000E94FA0C16C00E5F1F4FFE01C491CC23AD
:1027900081F08FE99FE00197F1F700C00000C15080
:1027A000F6CF0E5F1F4FFE01F49003C00E944B0C4A
:1027B0008E018F2D882309F49FCFEFE9FFE0319739
:1027C000F1F700C000008150F5CFDF91CF911F914C
:1027D0000F91FF90EF900895089508950C94ED13D4
:1027E0000C94EE130E94F013609312027093130284
:1027F00080931402909315020C94EB0F0C94F21337
:102800000F931F9300911202109113022091140252
:1028100030911502602B712B822B932B1F910F91FE
:102820000C94F2130F931F93009112021091130254
:102830002091140230911502602371238223932387
:102840001F910F910C94F2130F931F93009112029A
:102850001091130220911402309115026027712704
:10286000822793271F910F910C94F2130C94ED1370
:102870000E94361460930E0270930F028093100230
:10288000909311020C94EB0F60E070E0CB010C947C
:1028900038140F931F9341E050E060E070E08A012C
:1028A0009B0104C0000F111F221F331F8A95D2F70E
:1028B000C901B8011F910F910C9438140F931F9305
:1028C00041E050E060E070E004C0440F551F661F17
:1028D000771F8A95D2F780910E0290910F02A091F6
:1028E0001002B09111028A019B01082B192B2A2B8F
:1028F0003B2BC901B8011F910F910C9438140F9311
:102900001F9341E050E060E070E004C0440F551FA9
:10291000661F771F8A95D2F7409550956095709500
:1029200080910E0290910F02A0911002B0911102BD
:102930008A019B01082319232A233B23C901B801DB
:102940001F910F910C9438140F931F9341E050E0A6
:1029500060E070E004C0440F551F661F771F8A9522
:10296000D2F780910E0290910F02A0911002B091C7
:1029700011028A019B01082719272A273B27C90131
:10298000B8011F910F910C9438140F931F9300916D
:102990000E0210910F022091100230911102602B53
:1029A000712B822B932B1F910F910C9438140F9342
:1029B0001F9300910E0210910F022091100230918E
:1029C000110260237123822393231F910F910C9492
:1029D00038140F931F9300910E0210910F02209153
:1029E00010023091110260277127822793271F91CF
:1029F0000F910C9438140895292F220F920F990FDC
:102A0000890FE82FE695E695E695877051E001C0BD
:102A1000550F8A95EAF785E0E89FF0011124E0510F
:102A2000FE4F20E030E070E04081CB01022E02C07A
:102A3000969587950A94E2F781708195842785237E
:102A4000842781932F5F3F4F2530310569F7089523
:102A5000292F220F920F990F890F682F669566957F
:102A60006695982F977085E0689FB001112440E02B
:102A700050E080E0FB01E40FF51FE051FE4F2081A4
:102A800030E0092E02C0369527950A94E2F72170AE
:102A90003327042E01C0220F0A94EAF7822B4F5FDE
:102AA0005F4F4530510531F70895BF92CF92DF92C5
:102AB000EF92FF920F931F93CF93DF938C01C090FF
:102AC0000E02D0900F02E0901002F090110280915F
:102AD000120290911302A0911402B0911502C82A1B
:102AE000D92AEA2AFB2ACFE1D0E0D701C6010C2E71
:102AF00004C0B695A795979587950A94D2F780FD5F
:102B000004C0219790F7B12C07C0BC2EB8018C2FC0
:102B10000E94C6030197A9F38B2DDF91CF911F91DE
:102B20000F91FF90EF90DF90CF90BF900895CF93DB
:102B3000DF93EC010E945515BE010E94C603DF9190
:102B4000CF9108951F93CF93DF93EB019091B7013D
:102B5000992321F0CB010E94971513C0882349F0D7
:102B6000CB010E945515182F682FCE010E94FC142E
:102B700004C0CB010E942815182FBE01812F0E948E
:102B8000C603DF91CF911F9108958091160285951C
:102B90008595859508958091160287700895909186
:102BA0001602977081E009F480E008958091220276
:102BB000089590912202892B809322020895809596
:102BC000909122028923809322020895109222027A
:102BD000089590912102892B809321020895809578
:102BE000909121028923809321020895109221025D
:102BF000089590912002892B80932002089580955A
:102C0000909120028923809320020895109220023F
:102C1000089580911702089508950C940C160C9451
:102C20000D1690911702981721F0809317020C94BB
:102C30000F16089580911702882329F01092170229
:102C400080E00C940F160895E0910901F0910A01BB
:102C5000809122028083E0910901F0910A01908124
:102C600080912102892B8083E0910901F0910A0172
:102C7000908180912002892B808380911702882384
:102C800081F0E0910901F0910A019081892B808304
:102C90008091090190910A010E942E1781110E94D2
:102CA0001A168091090190910A010C941A0B0C9448
:102CB0000C1698E0899F90011124262B2093160270
:102CC0000E945E14809116028595859585950C94D9
:102CD00057161092160280E00C9457162091160297
:102CE0008095822380931602982F977079F430E0B4
:102CF000482F082E000C550B2417350739F0859501
:102D0000859585950E947F140C946916089580E03E
:102D100090E00E94232421E08C3E9E4F09F020E0A9
:102D2000822F089582E090E00C941B2483E090E0D1
:102D30000C941B24CF9384E090E00E941B24C82FA6
:102D400081E290E00E941B242C2F30E0A901582B37
:102D5000CA01CF910895CF93C92F682F84E090E0E6
:102D60000E9429246C2F81E290E0CF910C942924B9
:102D7000AB01BC018FE090E00C943B24AB01BC01A3
:102D800083E190E00C943B2460E070E0CB010C9474
:102D9000BE1660E070E0CB010E94B8160C94C41619
:102DA0006CEE7EEF80E090E00E94472460E082E0DD
:102DB00090E00E94292460E083E090E00E942924B2
:102DC0001092120210921302109214021092150225
:102DD00060E084E090E00E94292460E081E290E0DD
:102DE0000E94292460E085E090E00E94292460E0B0
:102DF00086E090E00E9429246FEF87E090E00E9437
:102E0000292440E050E0BA0188E090E00E943B2491
:102E100060E08DE090E00E94292440E050E0BA019B
:102E200088E190E00E943B2460E087E190E00E940E
:102E3000292440E050E0BA018CE190E00E943B245C
:102E400060E080E290E00E9429240C94C9160C9462
:102E5000D016682F8EE090E00C942924FC01329665
:102E600097E080E0915029F021912223D9F38F5FE0
:102E7000F9CF0895662349F0FC0132960896219116
:102E8000621729F0E817F907D1F780E0089581E08B
:102E900008959C01FC0132969FEF80E04191461716
:102EA00089F09F3F19F4411101C0982F8F5F863040
:102EB000A9F79F3F39F0F901E90FF11D97FDFA9548
:102EC0006283089508959C012A5F3F4FFC0142816F
:102ED000461301C01282019682179307B9F708952D
:102EE0000C9449170C946317029626E0FC0111928A
:102EF0002A95E9F7089508950C947B170C947B1795
:102F0000CF930E947E170E9456060E947C17C0E055
:102F10008C2F0E94B505811104C0CF5FC830C1F766
:102F200001C081E0CF9108950C947B170C94941705
:102F30000E94961780915A02843049F1109224021F
:102F400020E488E190E00FB6F894A89580936000A3
:102F50000FBE2093600080E00E9451030E949617EC
:102F600083B7817F846083BF83B7816083BF789498
:102F7000889583B78E7F83BF0FB6F894A89580910C
:102F80006000886180936000109260000FBE089519
:102F90000C947B170E9405100E940E0B0E94510397
:102FA0000C94C8171F920F920FB60F9211248F9393
:102FB0009F93AF93BF9380912402811113C080919E
:102FC000500290915102A0915202B0915302419649
:102FD000A11DB11D8093500290935102A093520203
:102FE000B0935302BF91AF919F918F910F900FBEFD
:102FF0000F901F90189582E084BD93E095BD9AEFE5
:1030000097BD80936E0008952FB7F8948091500279
:1030100090915102A0915202B09153022FBF089596
:103020009C014FB7F8948091500290915102A09169
:103030005202B09153024FBF821B930B08957894B4
:103040001F920F920FB60F9211248F939F93AF93FD
:10305000BF938091500290915102A0915202B09181
:1030600053020196A11DB11D80935002909351020D
:10307000A0935202B0935302BF91AF919F918F9151
:103080000F900FBE0F901F90189587E797E79093CA
:103090000108809300089AE088E10FB6F894A8959B
:1030A000809360000FBE90936000FFCF0E94871650
:1030B000811102C00E9427170E949216809323025A
:1030C0000E949A1690935502809354020E9496167D
:1030D000682F70E080E090E00E94FE1360910E0285
:1030E00070910F0280911002909111020C9436148D
:1030F00080912B0280FF0BC06091100185E0689FDA
:10310000B001112475956795759567952BC081FF62
:1031100009C06091100185E0689FB0011124759588
:10312000679520C082FF07C06091100185E0689F0D
:10313000B001112417C090912A029923D1F0609117
:103140000F01961788F72091100185E0289F9001C4
:103150001124929FA001939F500D112470E0CA0189
:103160000E94ED236038710540F46115710519F472
:1031700006C065E070E0862F08958FE7089581E02E
:10318000089580912B0280FF08C060910C0170E0CF
:10319000759567957595679521C081FF06C060910B
:1031A0000C0170E07595679519C082FF04C06091AD
:1031B0000C0170E010C090912902992399F0609160
:1031C0000B019617A0F780910C01899FC001112473
:1031D00070E00E94ED236038710540F461157105BF
:1031E00019F406C061E070E0862F08958FE7089516
:1031F00081E00895803F21F40E947818819504C0F1
:10320000813F29F40E94781880932F020895823F0D
:1032100021F40E947818819504C0833F29F40E940C
:10322000781880932E020895893F19F40E94C118DE
:1032300005C08A3F31F40E94C11881958093300205
:1032400008958B3F21F40E94C118819504C08C3FE2
:1032500029F40E94C118809331020895843F21F41B
:1032600080912D02816017C0853F21F480912D024D
:10327000826011C0863F21F480912D0284600BC0D2
:10328000873F21F480912D02886005C0883F31F48A
:1032900080912D02806180932D0208958D3F21F44D
:1032A00080912B0281600BC08E3F21F480912B0214
:1032B000826005C08F3F29F480912B028460809347
:1032C0002B020895803F39F480912F0287FF6AC056
:1032D00010922F0267C0813F29F480912F021816A7
:1032E000BCF360C090912E02823F29F497FF5AC030
:1032F00010922E0257C0833F19F41916CCF352C016
:1033000090913002893F31F419160CF04BC01092A5
:10331000300248C08A3F19F497FF44C0F8CF8B3F72
:1033200039F48091310287FF3DC0109231023AC0DA
:103330008C3F29F4809131021816BCF333C0843FCE
:1033400021F480912D028E7F17C0853F21F480915A
:103350002D028D7F11C0863F21F480912D028B7F3D
:103360000BC0873F21F480912D02877F05C0883FE5
:1033700031F480912D028F7E80932D0213C08D3FFA
:1033800021F480912B028E7F0BC08E3F21F480911F
:103390002B028D7F05C08F3F29F480912B028B7FFC
:1033A00080932B0280912E02811106C080912F0202
:1033B000811102C010922A0280913002811106C050
:1033C00080913102811102C01092290208950E9459
:1033D000041820912E02211104C020912F022223D3
:1033E00021F090932802809327022091300221112E
:1033F00004C020913102222321F090932602809371
:1034000025028CE292E00C94250BEF92FF920F9331
:103410001F93CF93DF9300D000D000D0CDB7DEB79D
:1034200086E0ECE2F2E0DE01119601900D928A95C1
:10343000E1F7E0902E02F0902F02009130021091FF
:10344000310210922E0210922F021092300210922E
:103450003102E11003C0FF2009F45DC08091270212
:10346000909128020E941018AC0190912A02992391
:1034700039F02091110130E02417350758F04BC086
:10348000209112018AE0289F90011124241735070A
:1034900018F041C09F3F19F09F5F90932A02EE20E1
:1034A00061F00E9478181E1414F09FEF01C091E0A3
:1034B000989F902D112490932E02FF2061F00E947E
:1034C00078181F1414F09FEF01C091E0989F902D81
:1034D000112490932F0230912E023323E1F020919A
:1034E0002F022223C1F045EB3403C001112499239C
:1034F00019F090932E0203C081E080932E0235EBE9
:103500002303C0011124992319F090932F0203C0C3
:1035100081E080932F02011103C0112309F45DC0E3
:1035200080912502909126020E941018AC01909182
:103530002902992339F020910D0130E02417350735
:1035400058F04BC020910E018AE0289F9001112471
:103550002417350718F041C09F3F19F09F5F9093E3
:103560002902002361F00E94C118101614F09FEF89
:1035700001C091E0989F902D112490933002112367
:1035800061F00E94C118111614F09FEF01C091E084
:10359000989F902D11249093310230913002332363
:1035A000E1F0209131022223C1F045EB3403C00148
:1035B0001124992319F09093300203C081E0809385
:1035C000300235EB2303C0011124992319F09093A5
:1035D000310203C081E08093310280912E0281117B
:1035E0000BC080912F02811107C0809130028111A0
:1035F00003C08091310281110E94E719EB82FC82A5
:103600000D831E8386E0FE013196ACE2B2E00190AC
:103610000D928A95E1F726960FB6F894DEBF0FBE9D
:10362000CDBFDF91CF911F910F91FF90EF90089543
:10363000ECE2F2E086E0DF011D928A95E9F7109254
:103640002A021092290210922B020895833081F1F0
:1036500028F4813059F08230D1F00895853009F492
:1036600049C0B8F1863009F456C00895809112011E
:10367000262F30E0280F311D2F3F310524F4680F2D
:103680006093120108958FEF809312010895809145
:103690001101262F30E0280F311D2F3F310524F472
:1036A000680F6093110108958FEF809311010895C1
:1036B00080911001262F30E0280F311D2F3F31055A
:1036C00024F4680F6093100108958FEF8093100128
:1036D000089580910F01262F30E0280F311D2F3FD4
:1036E000310524F4680F60930F0108958FEF8093E4
:1036F0000F01089580910C01262F30E0280F311D15
:103700002F3F310524F4680F60930C0108958FEF6B
:1037100080930C01089580910B01262F30E0280F33
:10372000311D2F3F310524F4680F60930B0108957C
:103730008FEF80930B010895833011F128F48130CD
:1037400049F0823091F00895853081F120F1863082
:10375000C1F1089580911201681720F4861B8093AF
:1037600012010895109212010895809111016817B5
:1037700020F4861B80931101089510921101089581
:1037800080911001681720F4861B80931001089522
:1037900010921001089580910F01681720F4861B84
:1037A00080930F01089510920F01089580910C01EC
:1037B000681720F4861B80930C01089510920C0169
:1037C000089580910B01681720F4861B80930B01EC
:1037D000089510920B0108950F931F9341E050E05C
:1037E00060E070E08A019B0104C0000F111F221FDE
:1037F000331F8A95D2F7C901B8010E94FE131F91A9
:103800000F910C9405108B3109F468C058F58B307A
:1038100009F486C078F4863009F445C020F4853078
:1038200009F44BC07FC0873009F44AC0883009F4DE
:1038300077C078C0803109F464C068F48E3009F034
:1038400071C08091230282FB222720F991E0922708
:1038500090FB82F94CC0863109F462C0893109F4C9
:103860005FC060C08A32E1F060F4873209F455C06D
:1038700028F48E3108F456C08D5150C08932E9F0D9
:1038800051C0833450F48A3308F045C0853309F4BD
:1038900044C0883309F444C045C08334F1F142C0C8
:1038A0000E9427173DC080912302817F8E7F8093E5
:1038B000230281E08093330208950E945B0330C0AD
:1038C00080912302982F9095917090FB80F98093BE
:1038D0002302911125C0897F877F10C08091230228
:1038E00081FB222720F991E0922790FB81F98093B8
:1038F00023029923A9F080912302816080932302FF
:103900000FC08091230283FB222720F991E09227A8
:1039100090FB83F9ECCF895301C080E00E94EC1B3F
:1039200081E0089580E0089580E008950C94941C4F
:103930008E518A3030F4E82FF0E0E257FE4F80815C
:10394000089580E00895CF93C82F8091330281308D
:1039500051F018F0823099F17DC00E94D615823264
:1039600009F07AC004C00E94D615823261F48C2F0F
:103970000E94961C811104C08C2F0E94031C1DC044
:1039800081E090E01AC08C2F0E94941C811114C019
:10399000C43179F048F4CB3079F0C03109F060C01F
:1039A00082E08093330208C0C93219F0C83321F095
:1039B00057C01092330254C081E0817053C0C932A5
:1039C00089F118F5C43171F1B0F4C73009F046C07F
:1039D0008EE18093120182E3809311018AE080934B
:1039E000100184E180930F0188E080930C0188E24C
:1039F00080930B0133C082EE8C0F863078F58C2FCC
:103A00000E94981C8093320229C0CE34E9F020F441
:103A1000CB3421F56AE013C0C13579F0C235F1F439
:103A200061E00DC080913202882319F010923202B9
:103A300015C081E08093330215C061E006C080911B
:103A400032020E94261B0AC06AE0809132020E9464
:103A50009C1B04C01092330280E004C081E002C0CD
:103A600080E0ABCFCF91089580913C020895CF9331
:103A7000DF9300D01F92CDB7DEB790915A029430F9
:103A800019F589837B836A8382E08093E9008FEF55
:103A90009091E800815095FD06C095ED9A95F1F75B
:103AA00000008111F5CF8091E80085FF0DC040E056
:103AB00050E063E070E0CE0101960E944F1F8091BC
:103AC000E8008E778093E8000F900F900F90DF91C1
:103AD000CF910895BC0184E00C94371DBC0183E0B4
:103AE0000C94371D22E02093E9002FEF3091E8007D
:103AF000215035FD06C035ED3A95F1F70000211152
:103B0000F5CF2091E80025FF0BC040E050E066E0D3
:103B100070E00E944F1F8091E8008E778093E8004C
:103B20000895CF93DF9321E02093E9002FEF3091A8
:103B3000E800215035FD06C035ED3A95F1F700005B
:103B40002111F5CF2091E80025FF14C0EC0140E0E1
:103B500050E068E070E00E944F1F8091E8008E778F
:103B60008093E80088E0FE01A4E3B2E001900D92AA
:103B70008A95E1F7DF91CF910895809159028111E3
:103B800009C00E94E0200E943D218091E2008460F3
:103B90008093E200089510925902089508950895BF
:103BA0000C94CA1742E061EC81E00E94592042E285
:103BB00061EC82E00C94592080915C02833009F41E
:103BC00060C030F4813071F0823009F499C00895FA
:103BD0008A3009F485C08B3009F46BC0893009F054
:103BE000A7C020C080915B02813A09F0A1C08091FA
:103BF000E800877F8093E80080915F0290916002E7
:103C0000892B21F468E084E392E003C060E080E067
:103C100090E070E00E949A1F8091E8008B7780937B
:103C2000E800089580915B02813209F081C08091A3
:103C30005F0290916002029708F07AC08091E800DC
:103C4000877F8093E8008091E80082FD05C0809125
:103C50005A028111F8CF6CC02091F3008091F200DC
:103C600090E0922B029729F48091F1008B7F8130B4
:103C700021F48091F10080933C028091E8008B77E1
:103C800053C080915B02813A09F052C080915F027B
:103C900090916002892B09F04BC08091E800877FEA
:103CA0008093E8008091E80080FFFCCF80911D01A7
:103CB00036C080915B028132D9F580915F0290918C
:103CC0006002892BA9F58091E800877F8093E80046
:103CD0000E948E2080915D0280931D010C9405103E
:103CE00080915B02813221F58091E800877F80938B
:103CF000E8000E948E2080915E0280933D0208952C
:103D000080915B02813AA1F48091E800877F8093E3
:103D1000E8008091E80080FFFCCF80913D02809315
:103D2000F1008091E8008E778093E8000C948E205B
:103D3000089584B7877F84BF0FB6F894A8958091C3
:103D40006000886180936000109260000FBE90E078
:103D500080E80FB6F89480936100909361000FBEE5
:103D60000E946F0B0E94E0200E943D218091E200A2
:103D700084608093E20078940E94D2230E94770BA3
:103D800083E191E00E94090B80915A02853069F429
:103D90000E949817809158028823B1F30E948017DF
:103DA000882391F30E94391FEFCF0E947F0BECCF45
:103DB0000C94DA1E292F332723303105C9F060F423
:103DC0002130310581F02230310509F04AC08BE302
:103DD00090E02CE334E049C02132310511F1223268
:103DE000310579F13EC082E190E027E734E03DC043
:103DF00099278130910561F040F08230910559F0AA
:103E0000039779F5ECEFF3E008C0E8E3F4E005C0D0
:103E1000E0E2F4E002C0E2E0F4E0849190E09F018F
:103E200024C06115710541F061307105D1F489E05C
:103E300090E027E634E019C089E090E02EE434E019
:103E400014C06115710541F06130710551F481E8CC
:103E500090E029E834E009C080E490E02AE035E011
:103E600004C080E090E020E030E0FA01318320835C
:103E7000089580E189BD82E189BD09B400FEFDCFCE
:103E80008091D8008F7D8093D8008091E00082607F
:103E90008093E0008091E00081FDFCCF0895CF92F7
:103EA000DF92EF92FF920F931F93CF93DF93EC017A
:103EB0008B017A010E94AD20811133C0E114F1041D
:103EC00039F0F70180819181081B190BC80FD91FA8
:103ED000C12CD12C0115110519F18091E80085FD47
:103EE00016C08091E8008E778093E800E114F10419
:103EF00049F0F70180819181C80ED91ED182C0821C
:103F000085E00FC00E94AD20882321F30AC089916B
:103F10008093F10001501109FFEFCF1ADF0ADACFC9
:103F200080E0DF91CF911F910F91FF90EF90DF9094
:103F3000CF900895209161023091620226173707D1
:103F400048F06115710539F42091E8002E7720932F
:103F5000E80001C0B901FC0120E06115710579F1AB
:103F600080915A028823F1F18530F1F18091E800C7
:103F700083FD3CC08091E80082FD2EC08091E80066
:103F800080FFEBCF2091F3008091F20090E0922B24
:103F90006115710551F08830910538F42191209315
:103FA000F100615071090196F3CF21E0089709F003
:103FB00020E08091E8008E778093E800CECF211139
:103FC000CFCF0AC080915A02882361F0853061F01A
:103FD0008091E80083FD0AC08091E80082FFF2CF63
:103FE00080E0089582E0089583E0089581E00895D7
:103FF00020916102309162022617370748F061155F
:10400000710539F42091E8002E772093E80001C073
:10401000B901FC0120E06115710591F180915A020E
:10402000882309F440C0853009F43FC08091E8003E
:1040300083FD3DC08091E80082FD2FC08091E800A3
:1040400080FFE9CF2091F3008091F20090E0922B65
:104050006115710559F08830910540F42491209341
:10406000F1003196615071090196F2CF21E0089775
:1040700009F020E08091E8008E778093E800CBCFB4
:104080002111CCCF0AC080915A02882361F085307B
:1040900061F08091E80083FD0AC08091E80082FF12
:1040A000F2CF80E0089582E0089583E0089581E0F2
:1040B0000895982F973068F59093E900981739F094
:1040C0007091EC002091ED005091F00003C0242F7E
:1040D000762F50E021FD02C09F5FECCF3091EB00C6
:1040E0003E7F3093EB003091ED003D7F3093ED004B
:1040F0003091EB0031603093EB007093EC00209333
:10410000ED005093F0002091EE0027FDE5CF80E018
:1041100008958F708093E90081E0089580915B029B
:1041200087FF11C08091E80082FD05C080915A028E
:104130008111F8CF11C08091E8008B770BC080917E
:104140005A02882349F08091E80080FFF8CF8091DF
:10415000E8008E778093E80008952091E400309184
:10416000E50095E64091EC00842F817040FF23C06C
:104170008091E80080FD1DC080915A02882399F04B
:10418000853099F08091EB0085FD11C04091E400ED
:104190005091E5002417350729F3915011F09A0149
:1041A000E1CF84E0089582E0089583E0089581E0FE
:1041B000089580E008954091E80042FFDDCF089522
:1041C0000E944E210E945621E0EEF0E08081816045
:1041D0008083E8EDF0E080818F77808319BCA7EDC4
:1041E000B0E08C918E7F8C9380818F7E8083109243
:1041F000590208950F931F93CF93DF930E944E218E
:104200000E945621C8EDD0E088818F77888388810D
:104210008068888388818F7D888319BC10925A02B8
:1042200010925602109258021092570200EE10E0BF
:10423000F80180818B7F808388818160888342E060
:1042400060E080E00E945920E1EEF0E080818E7F06
:104250008083E2EEF0E080818160808380818860ED
:104260008083F80180818E7F80838881806188834C
:10427000DF91CF911F910F910895E8EDF0E08081DB
:104280008F7E8083E7EDF0E080818160808384E031
:1042900082BF81E0809359020C94FA20E8EDF0E0AF
:1042A00080818E7F80831092E20008951092DA0060
:1042B0001092E10008951F920F920FB60F921124F1
:1042C0002F933F934F935F936F937F938F939F931E
:1042D000AF93BF93EF93FF938091E10082FF0BC0F8
:1042E0008091E20082FF07C08091E1008B7F809384
:1042F000E1000E94D1238091DA0080FF1FC08091ED
:10430000D80080FF1BC08091DA008E7F8093DA0096
:104310008091D90080FF0DC080E189BD82E189BD17
:1043200009B400FEFDCF81E080935A020E94BD1DBA
:1043300005C019BC10925A020E94CB1D8091E10069
:1043400080FF19C08091E20080FF15C08091E200DB
:104350008E7F8093E2008091E20080618093E20092
:104360008091D80080628093D80019BC85E080934A
:104370005A020E94CF1D8091E10084FF30C08091DD
:10438000E20084FF2CC080E189BD82E189BD09B4CF
:1043900000FEFDCF8091D8008F7D8093D800809162
:1043A000E1008F7E8093E1008091E2008F7E809318
:1043B000E2008091E20081608093E20080915602E9
:1043C000882311F084E007C08091E30087FD02C0DC
:1043D00081E001C083E080935A020E94D01D809149
:1043E000E10083FF29C08091E20083FF25C0809116
:1043F000E100877F8093E10082E080935A0210926F
:1044000056028091E1008E7F8093E1008091E2006E
:104410008E7F8093E2008091E20080618093E200D1
:1044200042E060E080E00E9459208091F0008860C6
:104430008093F0000E94CE1DFF91EF91BF91AF914C
:104440009F918F917F916F915F914F913F912F91AC
:104450000F900FBE0F901F9018951F920F920FB6DE
:104460000F9211242F933F934F935F936F937F93FA
:104470008F939F93AF93BF93CF93DF93EF93FF936C
:10448000C091E900CF708091EC00D82FD17080FDF1
:10449000D0E81092E9008091F000877F8093F000CF
:1044A00078940E9471221092E9008091F000886057
:1044B0008093F000CD2BCF70C093E900FF91EF9176
:1044C000DF91CF91BF91AF919F918F917F916F912C
:1044D0005F914F913F912F910F900FBE0F901F90C2
:1044E00018951F93CF93DF93CDB7DEB7AA970FB67A
:1044F000F894DEBF0FBECDBFEBE5F2E08091F10096
:10450000819322E0E336F207C9F70E94DC1D809117
:10451000E80083FF2EC180915B0290915C02492FDD
:1045200050E04A30510508F024C1FA01EC58FF4F21
:104530000C940124803821F0823809F01AC108C097
:104540008091570290915802992389F082600FC0A0
:1045500080915F028F70873008F00BC18093E90073
:104560008091EB0085FB882780F91092E9009091FB
:10457000E800977F9093E8008093F1001092F1009B
:10458000D1C0282F2D7F09F0F4C0882319F0823084
:1045900061F0EFC080915D02813009F0EAC0933094
:1045A00009F080E0809358022EC080915D02811155
:1045B0002AC080915F028F702FEF280F263008F0FD
:1045C000D8C08093E9002091EB0020FF1CC09330FD
:1045D00021F48091EB00806214C09091EB00906117
:1045E0009093EB0021E030E0A90102C0440F551F79
:1045F0008A95E2F74093EA001092EA008091EB007E
:1046000088608093EB001092E9008091E800877F3A
:104610008093E8000E948E20ACC08111AAC0109146
:104620005D021F778091E3008078812B8093E30007
:104630008091E800877F8093E8000E948E2080911F
:10464000E80080FFFCCF8091E30080688093E30066
:10465000111102C082E001C083E080935A0289C038
:104660008058823008F085C080915D0290915E0292
:104670008C3D53E0950779F583E08A838AE289834C
:104680004FB7F894DE01139620E03EE051E2E32FAD
:10469000F0E050935700E49120FF03C0E295EF70E3
:1046A0003F5FEF708E2F90E0EA3010F0C79601C0A8
:1046B000C0968D939D932F5F243149F74FBF809112
:1046C000E800877F8093E8006AE270E0CE010196FF
:1046D0000E949A1F16C060915F0270916002AE0145
:1046E0004F5F5F4F0E94D81EBC01892B09F441C067
:1046F0009091E800977F9093E80089819A810E94C9
:10470000F81F8091E8008B778093E80032C08038F2
:1047100081F58091E800877F8093E80080915602C0
:104720008093F1008091E8008E7772CF811121C0D3
:1047300080915D0290915E0299270297D4F4809156
:10474000E800877F8093E80080915D0280935602A5
:104750000E948E2080915602811106C08091E30054
:1047600087FD02C081E001C084E080935A020E946C
:10477000D21D8091E80083FF0AC08091E800877F06
:104780008093E8008091EB0080628093EB00AA9612
:104790000FB6F894DEBF0FBECDBFDF91CF911F9152
:1047A00008950895CF9380915A028823A1F0C09173
:1047B000E900CF709091EC00892F817090FD80E826
:1047C000C82B1092E9008091E80083FD0E947122BD
:1047D000CF70C093E900CF91089597FB072E16F490
:1047E000009407D077FD09D00E94072407FC05D06C
:1047F0003EF4909581959F4F0895709561957F4FF8
:104800000895EE0FFF1F0590F491E02D0994AA1B67
:10481000BB1B51E107C0AA1FBB1FA617B70710F0AB
:10482000A61BB70B881F991F5A95A9F780959095DD
:10483000BC01CD010895F999FECF92BD81BDF89AD2
:10484000992780B50895A8E1B0E042E050E00C94CB
:104850004F24262FF999FECF92BD81BDF89A01977A
:1048600000B4021639F01FBA20BD0FB6F894FA9AB8
:10487000F99A0FBE08950396272F0E942A240E94BA
:104880002924252F0E942A24242F0C942A240196BF
:10489000272F0E942A240C942924DC01CB01FC013F
:1048A000F999FECF06C0F2BDE1BDF89A319600B489
:0E48B0000D9241505040B8F70895F894FFCF94
:1048BE00019D01009E01049E0118022808641E1429
:1048CE000A321E341D911D721D6E1D6A1D01E200FD
:1048DE00E900EA00B500B600B700CD008301CC00B8
:1048EE008A0192019401210223022402250226024A
:1048FE0027022A02B300B4006F007000818283F693
:10490E00F73133323697C6343500000000E200E945
:10491E0000EA00B500B600B700CD008301CC008AD6
:10492E00019201940121022302240225022602276C
:10493E00022A02B300B4006F00700081828301026C
:08494E00030405060708090037
:00000001FF
