:100000000C9479020C94391D0C9496020C9496026F
:100010000C9496020C9496020C9496020C94960200
:100020000C9496020C9496020C945E220C9432234B
:100030000C94B81B0C9496020C9496020C949602A5
:100040000C9496020C9496020C9496020C949602D0
:100050000C9496020C945B1C0C9496020C949602E1
:100060000C9496020C9496020C9496020C949602B0
:100070000C9496020C9496020C9496020C949602A0
:100080000C9496020C9496020C9496020C94960290
:100090000C9496020C9496020C9496020C94960280
:1000A0000C9496020C9496020C949602280013006D
:1000B00012000C0018001C00340033000F000E006A
:1000C0000D000B00E500380037003600100011006D
:1000D0004F0051005200500021522C002A00130002
:1000E00012000C0018001C00340033000F000E003A
:1000F0000D000B00280038003700360010001100FA
:100100004F0052005100500024522C002A002700BA
:100110002600250024002300280030002F002E0098
:100120002D000700E50030022F021A001000050024
:100130002C0021525000520001004F002A003300D1
:100140001C0018000F000D00340012000C00080005
:1001500011000B00280038003700360010000E0098
:100160004F0052005100500024522C002B0034004C
:100170003600370013001C00350004001200080090
:1001800018000C00E100330014000D000E001B00ED
:100190002552E000E200E30023522C002A000F0069
:1001A000150006000A0009003800160011001700AB
:1001B0000B00070028001D0019001A0010000500A0
:1001C0004F0052005100500024522C0029001E0202
:1001D0001F022002210222024C003A003B003C0098
:1001E0003D003E0039004000410042004300440011
:1001F00020782178227829782A782C004C00270250
:100200002602250224022302310230022F022E028E
:100210002D023F000100010001006402320245008E
:10022000AE00A900AA00AB0025522C0035001E002C
:100230001F002000210022004C003A003B003C003F
:100240003D003E00010040004100420043004400E8
:100250000100010001000100010001004C00270025
:100260002600250024002300310030002F002E003E
:100270002D003F0001000100010064003200450034
:10028000AE00A900AA00AB00010001000100007C43
:100290000100010001000100010001000100807463
:1002A00081741570010001000100010001000100CE
:1002B0000100010001000100010001004C000100EB
:1002C0000100010001000100010001000252015281
:1002D0000052147001000100010001000100010042
:1002E0000100010001000100010001000100010006
:1002F00001000100010001000100010001000100F6
:1003000001000100010001000100010001000100E5
:1003100001000100010001000100010001000100D5
:1003200001000100010001000100010001000100C5
:1003300001000100010001000100010001000100B5
:1003400001000100010001000100010000000000A7
:100350000000037C007C0000000000000000027C24
:10036000000000000000000000000000000000008D
:100370000000000000000000000000000000007C01
:10038000037C00000000000000000000027C000070
:10039000000000000000000000000000000000005D
:1003A0000000000000000000000000001C034C00E2
:1003B0006500740073002000530070006C00690039
:1003C00074002000760032000000160357006F0012
:1003D0006F0074007000610074006F006F007400A3
:1003E00000000403090409023B00020100A0FA090D
:1003F0000400000103010100092111010001224450
:100400000007058103080001090401000103000041
:1004100000092111010001227B0007058203200051
:10042000011201000200000008776F0200020001C3
:1004300002000105010902A10185020901A10005CF
:100440000919012908150025019508750181020582
:1004500001093009311581257F950275088106094A
:10046000381581257F950175088106050C0A38022B
:100470001581257F950175088106C0C00501098099
:10048000A101850319012AB700150126B7009501BE
:1004900075108100C0050C0901A101850419012A0C
:1004A000A002150126A002950175108100C005016A
:1004B0000906A101050719E029E71500250195089E
:1004C000750181029501750881010507190029FF51
:1004D000150026FF009506750881000508190129F9
:1004E000051500250195057501910295017503918A
:1004F00001C011241FBECFEFDAE0DEBFCDBF11E097
:10050000A0E0B1E0E2EFFBE402C005900D92AA3A50
:10051000B107D9F722E0AAEAB1E001C01D92A93AD9
:10052000B207E1F70E94CA140C94B8250C9400009D
:100530008830B8F46830A8F4463098F450E096E07B
:10054000699F400D511D1124FA0190E3899FE00D30
:10055000F11D1124EE0FFF1FE455FF4F859194917B
:10056000089581E090E008950E949802089581E046
:1005700008950E94B702089581E008950E94B7028D
:1005800008950E94BE02089508950E94C40208952D
:10059000A6E0B0E0EEECF2E00C94142549835A8317
:1005A0009E833091B10189819A8131111AC03E81B7
:1005B000332399F0222389F00E94C908182F682F4D
:1005C00089819A810E94A50869817A81812F0E9480
:1005D000AA0F2696E3E00C9430250E94B708182F46
:1005E000F3CF0E94C90869817A81F1CFFC01262FDF
:1005F0004081518162817381848195810E94C8020A
:100600000895CF93DF93EC0161E00E94F602BE01F2
:100610000E94B902DF91CF910895CF93DF93EC014F
:1006200060E00E94F602BE010E94C502DF91CF91F8
:10063000089508950E947A070E9419032FEF84E31A
:100640009CE0215080409040E1F700C000000895F8
:100650000E941A030E947F1C08950E941A030E94A0
:10066000901C08950F931F93CF93DF938C0161E04B
:100670000E94F602EC01B8010E94C102811106C07D
:1006800080E0DF91CF911F910F910895B801CE01C5
:100690000E942E1A8823A1F3B801CE010E94781778
:1006A000882371F3B801CE010E94A019882341F379
:1006B000F8018581882361F0C330FCE7DF07E9F0AA
:1006C00058F4C115ECE7DE07A9F0C130DC47B9F0FA
:1006D000C8010E94BC02D5CFCB358CE7D807A9F062
:1006E000CC35ECE7DE0771F0CA35DC4789F70E94AC
:1006F000FF0CEECF0E942803C3CF0E94070D0E947B
:100700002D03BECF0E94F50CE3CF0E94030DE0CF76
:100710000E94951B0E94AF0308950E94B3030E949C
:100720009A1B0895089581E008950895CF93DF936B
:10073000D82F0E949303C82F882319F08D2F0E9471
:1007400095038C2FDF91CF9108950895CF93C82FF3
:100750000E9492038C2F0E949603CF91089580E00F
:100760000E94A60308950E94771A0E94A603089586
:10077000CF930E94771AC82F8091AC018C1779F023
:10078000C093AC010E94241C6093AD017093AE0134
:100790008093AF019093B0018C2F0E94A603CF915C
:1007A0000895ADE0B0E0E7EDF3E00C94152548873F
:1007B00059876A877B878C879D8791110E942D0CB2
:1007C0001F8286E0FE013896DE01119601900D929F
:1007D0008A95E1F78D8181110DC029813A814B8184
:1007E0005C816D817E818F810E94600B2D96E2E09D
:1007F0000C943125CE0101960E9401038111EDCFA9
:10080000F5CFFC012481213021F4808191810E9467
:10081000FB080895662329F00E9461150E94341692
:1008200008950E94BB15FACFCF93C82F8823C9F033
:100830008238C9F40E948B1A81FD13C089E30E949B
:10084000E50B0E94660C2FEF87EE93E0215080406D
:100850009040E1F700C0000089E30E94ED0B0E9488
:10086000660CCF9108958338A1F40E948B1A80FD05
:10087000F8CF83E50E94E50B0E94660C2FEF81EE16
:1008800094E0215080409040E1F700C0000083E5F3
:10089000E4CF8438A1F40E948B1A82FDE2CF87E472
:1008A0000E94E50B0E94660C2FEF81EE94E0215030
:1008B00080409040E1F700C0000087E4CECF8CEF8D
:1008C0008C0F813AB8F48C2F0E94E5188111C9CFA2
:1008D0006C2F80910001909101010E94031B8823DD
:1008E00029F08C2F0E94ED0B0E94660C8C2F0E9429
:1008F000E50BB5CF80E28C0F883048F4C77081E0FB
:1009000001C0880FCA95EAF70E94100CA8CFEBE54A
:10091000EC0FE33040F4F0E0EE59FE4F808190E0C0
:100920000E94A71A9ECFE8E5EC0FEB3150F4F0E0FF
:10093000EE0FFF1FE45DFE4F808191810E94CC1A73
:1009400090CF83E38C0F833108F08BCF61E08C2F45
:100950000E940A0486CF882309F456C0823879F4AD
:100960000E948B1A81FF50C089E30E94E50B0E9410
:10097000660C89E30E94ED0B0E94660C0895833893
:1009800059F40E948B1A80FF3FC083E50E94E50B5B
:100990000E94660C83E5EECF843859F40E948B1ACE
:1009A00082FF32C087E40E94E50B0E94660C87E458
:1009B000E1CF9CEF980F913AE8F290E2980F9830CF
:1009C00050F4877091E001C0990F8A95EAF7892F5A
:1009D0000E94160CD1CF9BE5980F933028F490E03D
:1009E00080E00E94A71A089598E5980F9B3128F49B
:1009F00090E080E00E94CC1A089593E3980F933121
:100A000018F460E00E940A0408951F93CF93DF93C7
:100A1000182FEB010E941404209739F4812F0E94B3
:100A2000AB04DF91CF911F9108958FE99FE001976B
:100A3000F1F700C000002197EFCF70E060E089334C
:100A400011F460E570E00E9405050895882321F007
:100A50000E94100C0E94660C0895882321F00E94C9
:100A6000160C0E94660C0895B0E0A0E0EAE3F5E001
:100A70000C940E256C01D62FC72FFC011581068121
:100A800002950F700E94060CE82E8823E9F0E12EF3
:100A90001123D1F08C2F807F803451F080E28D0FB4
:100AA0008830F8F0011104C08C2F807E8032C9F0AC
:100AB0008091850282FF15C082E00E94C90C0E94CD
:100AC000060C91E0E82EE926BC2EB2949FE0B922F4
:100AD000FBE0FB15B8F1EB2DF0E0E654FA4D0C9479
:100AE000FF24E12CF1CF0C2F0F70C07F11F0029585
:100AF000007F112399F0002359F080E28D0F883098
:100B000010F0D11107C0802F0E94100C0E94660CBB
:100B10008D2F5AC0802F0E94200CF8CF8D2F0E945D
:100B2000AB04002379F080E28D0F883010F0D111F2
:100B300004C0802F0E94160C03C0802F0E94260C38
:100B40000E94660CEB2DE850FF0B349720F40E94B6
:100B5000771A0E94A603EE2089F00E94020C80FD05
:100B60000DC0F60115820E94FC0B0E940308C6010D
:100B70000E9441070E94FC0B0E941308CDB7DEB70C
:100B8000E9E00C942A252C2F2F70F22EC07FC03262
:100B900019F0F29480EFF822DD2341F0D130D1F149
:100BA000112309F444C00023F1F0B2CF80918502F3
:100BB00082FD15C0112359F0FF2029F08F2D0E94CE
:100BC000100C0E94660C80E00E941404BBCF80E0F1
:100BD0000E94AB04FF2009F4B5CF8F2DABCF1123BA
:100BE00069F0011104C08F2D0E942605ABCF0130A2
:100BF00009F0A8CF8F2D0E94440CA4CF0111A2CFE1
:100C00008F2D0E942D058F2D0E94500C8F2D0E943C
:100C1000340C98CF112321F0063008F093CFE3CFA6
:100C2000053008F08FCF8F2D0E942D058BCF00232C
:100C3000D1F3D93349F43FEF87EE93E03150804050
:100C40009040E1F700C000008D2F0E94AB047ACFE6
:100C50008C2F86958695837069F0813009F072CF6C
:100C60008D2F9C2F9370111102C080E090E00E94A4
:100C7000CC1A68CF8D2F9C2F9370111102C080E089
:100C800090E00E94A71A5ECF612F8D2F0E940A0468
:100C900059CF8C2F8370A1F5111154CF4D2F429550
:100CA00046954770440F440F2D2F2F7030E0042ECF
:100CB00002C0220F331F0A94E2F790E080E0D4FFD5
:100CC00009C08FE090E002C0880F991F4A95E2F7B3
:100CD00080959095C695C695C370822B932BC23094
:100CE00049F058F4C13019F00E94D3072BCF0E946D
:100CF000CA0728CF0E94DC0725CF0E94C70722CF52
:100D00008695112311F08C2F8170882309F41ACF56
:100D10004D2F429546954770440F440F2D2F2F704D
:100D200030E0042E02C0220F331F0A94E2F790E055
:100D300080E0D4FF09C08FE090E002C0880F991FC7
:100D40004A95E2F780959095C695C695C370822B1B
:100D5000932BC23049F058F4C13019F00E943E087C
:100D6000F1CE0E943508EECE0E944708EBCE0E94DD
:100D7000EB07E8CECF70112329F08C2F0E940308D7
:100D80008D2F32CF8D2F0E942D058C2F0E9413089E
:100D9000D9CED23F41F160F4D03FB9F0D13F81F0DC
:100DA000112309F446C00111B3CE8C2F8F711FC0DF
:100DB000D33F01F1D43FA1F78091850282FD24C089
:100DC0008C2F8F71112311F312C0112341F00530C4
:100DD00008F0B8CE8C2F8F710E942508B3CE063054
:100DE00008F0B0CEF7CF8C2F8F711111CFCF0E94AA
:100DF0000308A8CE112329F08C2F8F710E94F707CA
:100E0000A1CE0E94F2079ECE112349F0CF718C2F04
:100E10000E94030863E08C2F0E94AB0C93CE81E00C
:100E20000E94C90C023008F48DCE82E00E94C90CE9
:100E300089CE002359F0D93309F006CFEFEFF7EE52
:100E400023E0E150F0402040E1F7FCCE8C2F8F7181
:100E50009DCF0F931F93CF93DF93EC01688179812E
:100E60008D810E9406098C010E9450080E94C607CD
:100E7000B801CE010E943405DF91CF911F910F91EF
:100E80000895CF93DF93EC018C81882399F0CE01F4
:100E90000E943203811111C00E94060C882351F078
:100EA0008D81882339F08091850282FF03C082E022
:100EB0000E94C90CDF91CF910895CE010E942907AD
:100EC000CE010E940D03F6CF90E080E00E94A71AA9
:100ED00090E080E00E94CC1A0E942D0C0E94660CCB
:100EE0000E9450160E94341608950E94F50B0E942D
:100EF000640708950E941D0C0E947507089592953D
:100F00009F70963091F058F4925F9F70923058F431
:100F1000803F19F030F4883E30F481E008959A5F04
:100F2000F4CF843FD1F380E00895883EB0F3813F51
:100F3000D1F7F3CFFC012481222339F08081918104
:100F40000E94FB080E947F07089580E00895A6E0B4
:100F5000B0E0EDEAF7E00C9415252696E2E00C945B
:100F60003125A7E0B0E0E7EBF7E00C9415252796D4
:100F7000E2E00C94312508950E94BB0708950E9479
:100F8000BC079093CD018093CC01089508950E94F1
:100F9000BF0708952091CC013091CD01822B932B76
:100FA0000E94BF0708952091CC013091CD0182238A
:100FB00093230E94BF0708952091CC013091CD0169
:100FC000822793270E94BF0708950E94BB070895B8
:100FD0000E94E50708950E94E8079093CB01809353
:100FE000CA01089590E080E00E94EB07089521E097
:100FF00030E0A90102C0440F551F8A95E2F7CA01EB
:101000000E94EB07089521E030E002C0220F331F59
:101010008A95E2F78091CA019091CB01822B932BA4
:101020000E94EB07089521E030E002C0220F331F39
:101030008A95E2F7209530958091CA019091CB0175
:10104000822393230E94EB07089521E030E002C041
:10105000220F331F8A95E2F78091CA019091CB014C
:10106000822793270E94EB0708952091CA013091AF
:10107000CB01822B932B0E94EB0708952091CA018C
:101080003091CB01822393230E94EB070895209196
:10109000CA013091CB01822793270E94EB07089564
:1010A0000895262F277091E001C0990F2A95EAF73D
:1010B00023E0769567952A95E1F7660F771F660F0F
:1010C000771FFA01E60FF71F50E040E0682F70E04D
:1010D0008191DF0111979B01042E02C0369527955F
:1010E0000A94E2F7217021952827292328272C9399
:1010F0004F5F5F4F4430510559F70895A82FA770EF
:1011000023E0969587952A95E1F7880F991F880F18
:10111000991FFB01E80FF91F50E040E080E02191AA
:1011200030E00A2E02C0369527950A94E2F7217026
:101130003327042E01C0220F0A94EAF7822B4F5F57
:101140005F4F4430510559F70895262F983070F4B9
:10115000863060F4682F70E086E0989F600D711D06
:10116000112442EB51E0822F0E9451080895292F4B
:10117000983068F4863058F490E062EB71E036E025
:10118000239F800D911D11240E947E08089580E008
:101190000895B0E0A0E0EFECF8E00C940E257C019F
:1011A0000091CA011091CB018091CC019091CD01A9
:1011B000082B192BCFE0D0E0CC24C394D12CBC2E2B
:1011C000C6010C2E02C0880F991F0A94E2F78023F3
:1011D0009123892B49F4219790F7B12C8B2DCDB712
:1011E000DEB7E9E00C942A25B7018C2F0E94B60FD8
:1011F000019789F3F3CFCF93DF93EC010E94C908E5
:10120000BE010E94B60FDF91CF9108951F93CF9337
:10121000DF93EB019091B101992339F0CB010E944A
:10122000FB08DF91CF911F910895882369F0CB01CE
:101230000E94C908182F682FCE010E94A508BE0180
:10124000812F0E94B60FEDCFCB010E94B708182F57
:10125000F6CF1F93CF93DF93C091CE0117E080911B
:10126000CF018C1304C0DF91CF911F910895D0E07E
:101270001C9FF0011D9FF00D1124E053FE4F2081B3
:101280003181428153816481758186810E94B107D9
:101290002196C770E4CF2091080230910902409155
:1012A0000A0250910B0260910C0270910D02809124
:1012B0000E020E94B1070895CF93DF9380910E0232
:1012C000807F09F04DC080910D02882309F448C049
:1012D000E091CE015091CF01C0910902D091080256
:1012E00060910A0270910B0247E05E17C9F18E2FE0
:1012F00090E0E49FF0011124E053FE4F248122236B
:1013000091F1489FF001499FF00D1124DF01A05396
:10131000BE4F11962C9111972C1325C02C912D1393
:1013200022C015962C91159721111DC012962D9152
:101330003C91261B370B283C3105A8F480910E0206
:101340008F70806180930E02EA52FE4F80818F7011
:101350008061808388E092E00E9441070E94290911
:10136000DF91CF910895FC013196E770BECF482FF1
:101370002091CE019091CF0157E0291302C080E067
:10138000089530E0529FF001539FF00D1124E05377
:10139000FE4F8181681306C08081481303C0858198
:1013A0008111EECF2F5F3F4F2770E7CFA4E1B0E070
:1013B000ECEDF9E00C940B258C0186E0F801DE01E0
:1013C0001F9601900D928A95E1F7F8018481E580DE
:1013D00098E0A92E92E0B92E90910C0291111FC0B5
:1013E0008823D1F0EE20A9F0C8010E949A07F82EB8
:1013F000882379F087E0F801D50101900D928A9554
:10140000E1F7C5010E9401040E945C090E944B099A
:101410005FC0C8010E944107FF24F39459C0C080F7
:10142000D18082809380F0900D0220910A02309149
:101430000B02A401421B530BFF2009F4F9C0483CE6
:10144000510508F0A7C0882309F442C09091090211
:1014500080910E02282F207F09F05CC09D1116C0DC
:1014600090910802C91212C0E1104EC08F708061C5
:1014700080930E020E944B0988E092E00E9441078F
:1014800080910E02F8018683F12C22C0E1103CC04D
:101490006D2D8C2D0E94B7096D2D8C2D0E94B709E2
:1014A000E82E8111F1CFCF86D88A8F8598890E9446
:1014B000FB08292F22952F70243078F49F7022305A
:1014C000A8F09923B9F0F8019681907F99F4FE2C49
:1014D0008F2D6496ECE00C9427252A5F2F70223024
:1014E00068F0C8010E944107EF2CF1CF992311F059
:1014F000882369F3805E883050F3F3CF803F38F360
:10150000815F833070F7E3CF80910E02816080931A
:101510000E02BACF9D1113C090910802C9120FC0DC
:10152000E1100DC08683C8010E94410787E0F801E1
:10153000A8E0B2E001900D928A95E1F767CFC8016B
:101540000E949A07882309F464CFEE2009F461CF42
:1015500080910E02803288F02091080230910902B9
:10156000398728879B868A8690910C029C871D86E6
:101570008E87CE0108960E94410787E0F801A8E017
:10158000B2E001900D928A95E1F70E945C090E94F9
:101590004B0942CF90910E02292F207FA1F4682D94
:1015A0009A8A898AA6017A899E2D0E94A70788E0D7
:1015B00092E00E94410787E0F50111928A95E9F7D0
:1015C0000E944B0961CF882309F482CF80910902E0
:1015D0008D1110C080910802C8120CC0E1100AC021
:1015E0009683C8010E94410787E0F50111928A9510
:1015F000E9F76ECFC8010E949A07882309F409CF42
:10160000EE2009F406CF80910E02803208F4B5CFA7
:1016100020910802309109023A8329839C828B82AF
:1016200090910C029D831E828F83CE010196A3CFE1
:10163000483C5105B8F5882309F4EECEFE2CEE2087
:1016400009F4E7CE809109028D111EC08091080235
:10165000C8121AC080910E0280FD0DC0982F907F95
:1016600051F08683903F09F45ECF982F907F905F72
:101670008F70892B57CF87E0F801A8E0B2E0019086
:101680000D928A95E1F724CFC8010E949A07811133
:1016900074CF80910E02816080930E02C8010E9477
:1016A000410716CF682D9A8A898AA6017A899E2DCC
:1016B0000E94A70787E0F50111928A95E9F7A6CE67
:1016C000AEE0B0E0E6E6FBE00C941425288739870D
:1016D0004A875B876C877D878E87CE0108960E943C
:1016E000D6098823B1F06C85662341F028853985B9
:1016F0004A855B857D858E850E94B10717E08091C4
:10170000CE019091CF0189133DC02E96E3E00C9459
:10171000302587E0FE013896DE01119601900D928A
:101720008A95E1F78C85882349F32091CF0130E039
:10173000C9010196877099274091CE014817190673
:1017400099F097E0929FD001939FB00D1124A05380
:10175000BE4FFE01319601900D929A95E1F780936C
:10176000CF010E942909CACF0E947A071092CF01A7
:101770001092CE0187E0E8E0F2E0DF011D928A9549
:10178000E9F7BCCF819FC001112480539E4F0E9476
:10179000D609882309F4B9CFE091CE011E9FF0014C
:1017A0001124E053FE4F20813181428153816481B5
:1017B000758186810E94B1078091CE0190E00196EB
:1017C000877099278093CE019ACF682F809100016E
:1017D000909101010E94391B0895682F80910001AA
:1017E000909101010E943C1B08958091000190910D
:1017F00001010E943F1B08958091170286958695EE
:101800008695089580911702877008959091170228
:10181000977081E009F480E0089580912302089593
:1018200090912302892B80932302089580959091B3
:10183000230298239093230208951092230208957F
:1018400090912202892B8093220208958095909195
:101850002202982390932202089510922202089562
:1018600008950E94300C089590911802292F282382
:1018700031F080958923809318020E94310C0895DD
:1018800008950E94400C089590911902292F282351
:10189000281729F0982B909319020E94410C089563
:1018A00090911902292F282331F080958923809364
:1018B00019020E94410C089580911902882329F091
:1018C0001092190280E00E94410C0895CF93DF939B
:1018D000E0910001F0910101809123028083E09169
:1018E0000001F0910101808190912202892B808377
:1018F00090911902992381F0E0910001F09101018A
:101900008081892B808380910001909101010E9448
:10191000F11A81110E945C0CC0910001D09101016B
:1019200048E050E06FE072E0CE010E945025892B24
:1019300059F088E0FE01AFE0B2E001900D928A9587
:10194000E1F7CE010E948E1ADF91CF91089508959C
:101950000E94A70C08959091850292FF11C098E013
:10196000899F90011124622B609317020E94030843
:10197000809117028695869586950E94A80C0895F9
:101980000E94030808951092170280E00E94A80C9C
:101990000895909117028095892380931702282F2C
:1019A000277069F4891759F09091850292FF07C05A
:1019B0008695869586950E9413080E94C30C08950B
:1019C0009091850292FB222720F9281769F080FB6D
:1019D00092F99093850280918402909185020E94F1
:1019E000280D82E00E94C90C08958091850282FB37
:1019F000882780F991E089270E94E00C089581E012
:101A00000E94E00C089580E00E94E00C08956FEFC2
:101A10007FEF90E080E00E94A225089590E080E0B2
:101A20000E946E2521E0863E9E4F09F020E0822F25
:101A3000089582E090E00E946625089583E090E09A
:101A40000E946625089584E090E00E946E25089526
:101A5000BC0184E090E00E94A2250895AB01BC0186
:101A60008FE090E00E9496250895AB01BC0183E1D0
:101A700090E00E949625089560E070E0CB010E94FE
:101A8000350D089560E070E0CB010E942E0D0E949C
:101A90003C0D0895A8E0B0E0E0E5FDE00C941525CC
:101AA00066EE7EEF90E080E00E94A22560E082E09A
:101AB00090E00E94842560E083E090E00E9484250D
:101AC0001092CD011092CC0160E074E184E090E0CE
:101AD0000E94A22560E086E090E00E9484256FEFDE
:101AE00087E090E00E94842540E050E0BA0188E061
:101AF00090E00E94962560E084E290E00E948425B8
:101B000060E087E190E00E94842560E08CE090E056
:101B10000E94842560E08DE090E00E948425198277
:101B20001A821B821C821D821E821F82188648E038
:101B300050E068E170E0CE0101960E94742540E01B
:101B400050E0BA0180E290E00E9496250E94420D8A
:101B50002896E2E00C9431250E944A0D0895682FE2
:101B60008EE090E00E9484250895A6E0B0E0EBEBC3
:101B7000FDE00C9413250E94181C8C018091240216
:101B8000909125028017910781F019821A820E9494
:101B9000181C682F49815A81792F80E090E00E94BB
:101BA000D10310932502009324022696E4E00C94BE
:101BB0002F250E94D21060933202709333028093DB
:101BC00034029093350260932E0270932F0280931B
:101BD0003002909331020895089508950E94EC0D0B
:101BE000089508950E94F10D089581E008958CEE06
:101BF00090E10E94D7140E94ED0D0E94EE0D089511
:101C00000E94BE120895089508950E94030E0E9436
:101C1000040E08950E94EF100E94A50308950E94EB
:101C20000F1C0E94AC100E94D9120E941F120E9429
:101C30000A0E0E9460170E94E3120E94F20D08959E
:101C4000A6E0B0E0E6E2FEE00C940C250E94F50D63
:101C500081110CC00E94B50D0E94BE120E94721626
:101C60000E94B8032696EBE00C9428250E944212AD
:101C700086E2A82E82E0B82E750110E0F7010191EE
:101C80007F01812F0E9415111F5F183009F441C098
:101C90000817A1F38091360281FD0E941B110E945A
:101CA000000EC82E10E099249394812F0E941511E4
:101CB000082FF50181915F01081729F1F12CEE241D
:101CC000E394D02ED8268D2D8E21A9F0CC2099F02A
:101CD000F9821A830E94181C9C838B839D8291E059
:101CE000802F8E2109F490E049815A816B817C819B
:101CF0008D810E94D103F394EE0CF6E0FF12E3CF46
:101D0000F501319700831F5F183079F60E94D90DD5
:101D1000A3CF0813BFCF9ECF1F93CF93DF930E9413
:101D2000BB0FEC01C11580E5D807F0F5C11580E4C3
:101D3000D80708F09CC0C03ED10520F5CD3CD105A8
:101D400008F082C0C83AD10578F4C53AD10508F048
:101D500073C0C130D10519F1209709F1C430D10504
:101D6000F0F4D0E0C0E01BC0C33CD105D0F7C85AA6
:101D7000D0E0CC0FDD1FCB59DE4F0990D881C02DAC
:101D8000D4640DC0C11580E2D80708F0D1C0C115D8
:101D900081E0D80708F05AC0C83ED10510F7CE013F
:101DA000DF91CF911F910895C03682E5D80718F5CD
:101DB000C03482E5D80708F06BC0C03282E5D8078E
:101DC00008F05FC0C11582E5D80708F497C02C2F32
:101DD0002695269580E2289F900111248C2F8370F0
:101DE000C1E0D0E002C0CC0FDD1F8A95E2F7C22B24
:101DF000D32BDD68D4CFC03A82E5D80760F4C03871
:101E000082E5D80708F459C0CF71D0E0DC2FCC2789
:101E1000C46FD06AC4CFC03C82E5D80708F462C062
:101E2000C03E82E5D80708F09CCFDC2FCC27CC271A
:101E3000DF71C06FD06AB3CFC55AD0E0C556DE4F50
:101E4000C881D0E0D064ABCFD065A9CF8D2F0E94E0
:101E50005D10182FCE0199270E94BB0FC12FD0E033
:101E6000DC2FCC27CC27DF71C82BD92B98CFCE0104
:101E700099270E94BB0FCC27DF70C82BD92BD06AC3
:101E80008ECFCF71D0E0DC2FCC27C16FD06A87CF47
:101E90002C2F26952695277080E2289F90011124EB
:101EA0008C2F8370C1E0D0E002C0CC0FDD1F8A957B
:101EB000E2F7C22BD32BDC6872CF2C2F2695269508
:101EC000277080E2289F900111248C2F8370C1E03D
:101ED000D0E002C0CC0FDD1F8A95E2F7C22BD32BD6
:101EE000DA685DCF8C2F8F710E945D10C82FD0E013
:101EF000DC2FCC27CC27DF71D06251CF8C2F8F7194
:101F00000E945D1055E0D695C7955A95E1F7CF70C0
:101F1000D0E0DC2FCC27282F30E084FF05C044E040
:101F2000220F331F4A95E1F7C22BD32BD06937CF4D
:101F30008D2F8F710E945D10182FCE0199270E945E
:101F4000BB0FC12FD0E0DC2FCC27CC27DF71C82BF3
:101F5000D92BD2CF462F783030F4663020F4672F5B
:101F60000E94B402089590E080E008950E94AA0FB4
:101F70000E948C0E089582389105B9F1B0F4813336
:101F8000910509F47DC048F48932910509F46DC0CA
:101F90008A32910509F47BC008958533910509F4CF
:101FA0005FC08933910509F10895833E9105D9F108
:101FB00038F4803E910529F1823E910579F108952A
:101FC000863E9105D9F1873E910509F43EC0843ED5
:101FD000910541F52091850221FF24C08091840262
:101FE00084FD19C087EE90E008952091840223704B
:101FF00009F05AC02091850223FF14C089E290E0C5
:1020000008952091840220FD38C03091850230FF70
:1020100009C024FF43C090E080E00895209184022D
:1020200022FDF7CF08952091840222FD3AC030911D
:10203000850230FD39C024FFF5CFEDCF2091840219
:1020400023FFF0CF24FDE7CFCDCF2091840223FDE5
:102050002EC03091850231FFEECF84EE90E00895DE
:102060002091840225FFDECFC9CF2091840225FD77
:1020700021C02091850223FFD5CF89E390E0D2CF04
:102080002091840226FFCECF8AE290E0089520912D
:10209000840226FFC7CF81E390E0089583EE90E0AD
:1020A000089582EE90E0089580EE90E0089586EE27
:1020B00090E0089585E390E008959091840292FF66
:1020C00010C041E0282F2471243009F040E031E0B5
:1020D000282F2871283009F030E0431711F02CE048
:1020E000822793FF10C041E0282F2471243109F08A
:1020F00040E031E0282F2871283109F030E0431703
:1021000011F02CE082273091850230FF10C051E0A1
:10211000282F2171213009F050E041E0282F28714B
:10212000283009F040E0541711F029E0822731FFF0
:1021300010C041E0282F2171213109F040E031E049
:10214000282F2871283109F030E0431711F029E0D9
:10215000822794FD877E089510928002109281025A
:1021600010928202109283020895CF92DF92EF9232
:10217000FF926B017C010E94BE1281110EC00E9471
:10218000241CC61AD70AE80AF90AC0928002D09223
:102190008102E0928202F0928302FF90EF90DF9042
:1021A000CF9008950F931F930E94BE12882329F0A9
:1021B0000E94241C1F910F9108950E94241C0091DD
:1021C0008002109181022091820230918302600F7F
:1021D000711F821F931FEECF80E0089508950E9423
:1021E0000E0D811102C00E94AC0D0E94190D80934A
:1021F00036020E94230D90938502809384020E94F0
:10220000EE100E941E0D90E00E94C7078091CA0147
:102210009091CB010E94E807089508950E940D1146
:10222000089508950E9411110895E82FF0E0E157F4
:10223000FD4F80810895089580EA8A95F1F7089509
:1022400000C008950E941C11089508950E94251150
:102250000895EF92FF921F93CF93DF9300D000D0A9
:10226000CDB7DEB70E94BE12182F60919702882367
:1022700009F447C019821A821B821C82862F90E0C3
:102280009E012F5F3F4F7901B90181579D4F0E94F9
:10229000F1128823E9F08091860290E044E050E05A
:1022A000B70181579D4F0E94502521E020933702AE
:1022B000892BC9F410E00E941211812F0F900F900A
:1022C0000F900F90DF91CF911F91FF90EF900895A5
:1022D00080913702882371F384E0F70111928A9587
:1022E000E9F710923702E0918602F0E0E157FD4FE6
:1022F00089819A81AB81BC8180839183A283B383DE
:10230000DACF70E061577D4F8091860290E081576F
:102310009D4F0E9478130E942611CFCFF894E82F8A
:10232000E295EF70F0E031A1282F2F7081E090E06E
:1023300001C0880F2A95EAF7982F9095932391A3CF
:1023400092A1892B82A378940895CF93DF9387E994
:102350000E948E1186EC0E948E1184E30E948E11E1
:1023600085E30E948E11CEE9D1E089918F3F11F073
:102370000E948E1181E0C43AD807B9F7DF91CF915E
:102380000895B0E0A0E0E7ECF1E10C940F25EC013A
:10239000D62E062F10E0C8018C559E4F7C01FC0103
:1023A00080818F3F09F444C0F894E82FE295EF70E4
:1023B000F0E091A18F7021E030E001C0220F8A95FA
:1023C000EAF7892F822B81A382A12095282322A3BB
:1023D00078940E942011EEE9F1E031E0C12C2191C6
:1023E0002F3F59F1A22FA295AF70B0E090968C913B
:1023F00090E02F7002C0959587952A95E2F780FDB1
:102400001CC0832FC82A330F81E0E43AF80739F75C
:10241000F70180818F3F11F00E948E1161E0C110A1
:1024200001C060E08D2D0E942211C00FD11FC88213
:10243000CDB7DEB7E8E00C942B2580E0E3CF8091A8
:1024400002018091020194E0811190E09093970243
:1024500084E0891B809386020E94A51188E0EFE842
:10246000F2E0DF01982F1D929A95E9F7E7E8F2E094
:10247000DF011D928A95E9F784E00E9480120E9494
:102480000E110895A8E0B0E0E8E4F2E10C94122502
:102490008E010F5F1F4F88E0F80111928A95E9F7CE
:1024A000F12C6F2DC8010E94C111F394F4E0FF12CA
:1024B000F8CF48E050E0B80187E892E00E9450254C
:1024C00021E0009709F420E0892B41F088E0F80131
:1024D000A7E8B2E001900D928A95E1F7609197022A
:1024E00070E061577D4F44E087E892E00E948112DE
:1024F000182F0E942911812B2896E5E00C942E2597
:102500000895CF92DF92EF92FF920F931F93CF9394
:102510006C017B01042F222349F081E080933A0271
:102520000E94181C9093390280933802C0913A029D
:10253000C1110AC0C0E08C2FCF911F910F91FF9065
:10254000EF90DF90CF9008958091380290913902FA
:102550000E94301C059770F310E0A801B601C70176
:102560000E945025892B41F0A801B601C7010E94A5
:102570005D2510923A02DFCFC0E0FBCF80913D0293
:10258000811107C00E94DE24882351F081E08093EE
:102590003D0281E090913D02913009F080E0089584
:1025A00082E080933D020E94D924F3CF0E94BE12A4
:1025B00008950E94D612809302010E94BE128111DA
:1025C0000E94271308950E94BE12811102C00E942A
:1025D0002A13089581E090913E029A3008F080E03D
:1025E00008950F931F93CF93DF93EC018B0180919C
:1025F0003E028A30B8F4B801CE010E947513C82F8C
:10260000811122C080913E028F3FB9F40E94181CB4
:1026100090933C0280933B028C2FDF91CF911F91CE
:102620000F91089580913B0290913C020E94301CD2
:10263000843F914000F7C0E0EFCF8F5F80933E0270
:102640008A3020F7C1E0E8CF10923E02E5CF0E9429
:10265000F31C08950E94F61C0895B0E0A0E0E3E3A7
:10266000F3E10C9410257901C82F880FDD0B41157B
:102670005105A9F0FE0193E0EE0FFF1F9A95E1F7D7
:10268000ED5FFE4F81819281815C9D4F208130E022
:102690004217530708F49A01A9010E945D25CE0153
:1026A0000E94DF1DD82E8823D1F001151105B9F045
:1026B00083E0CC0FDD1F8A95E1F7FE01ED5FFE4F51
:1026C000438150E00417150708F4A801CD5FDE4FE1
:1026D0006C817D81615C7D4FC7010E945D258D2DE0
:1026E000CDB7DEB7E7E00C942C250E946F14089557
:1026F0000E9486140895A4E0B0E0E1E8F3E10C94B0
:102700001325609154027091550280915602909168
:1027100057020E943F1C11E0643671058105910546
:1027200018F10E94D2106E5F7F4F8F4F9F4F6983C9
:102730007A838B839C8310E000E030E020E044E06B
:1027400050E0BE016F5F7F4F82E00E942D13182F73
:10275000882351F00E94241C609354027093550208
:102760008093560290935702812F2496E4E00C94B4
:102770002F25B0E0A0E0EFEBF3E10C940D257C01F8
:102780005B016A010E94EA1201E010E0882311F067
:102790000AE010E0C1E0D0E0B501C701F6010995FB
:1027A000811104C021960C171D072CF4CDB7DEB79C
:1027B000EAE00C942925CC9F9001CD9F300D300D7F
:1027C000112490E080E045E34A95F1F7000001967E
:1027D00082179307C1F7E0CFA5E0B0E0E2EFF3E1A5
:1027E0000C940D255B01E090A801F090A90101E097
:1027F00010E09E012B5F3F4F50E040E070E060E052
:1028000080E00E942D13182F882309F44BC0670124
:102810008FEFC81AD80A60915002709151028091CE
:102820005202909153020E943F1C6436710581054B
:10283000910580F104E010E09E012F5F3F4F50E0D2
:1028400040E070E060E081E00E942D13F82E64E02B
:1028500070E0C6010E94611711E09D81981310E09D
:102860001F2159F10E94241C609350027093510261
:10287000809352029093530289819A81AB81BC81EB
:1028800080934C0290934D02A0934E02B0934F025E
:1028900011E013C064E070E0C6010E9461179D81E1
:1028A0008913C8CFF70181819281A381B481898383
:1028B0009A83AB83BC831111DFCF80914C0290913E
:1028C0004D02A0914E02B0914F02F5018083918399
:1028D000A283B383812F2596EAE00C9429250F93D8
:1028E0001F93CF93DF93EC018B014CEE53E10E94D9
:1028F000B913882331F04BE753E1B801CE010E94B0
:10290000B913DF91CF911F910F9108950F931F93EA
:10291000CF93DF93C091A801D091A901CE01019678
:1029200024E0FB01DC0101900D922A95E1F764E0BF
:1029300070E00E94611788836D817E818F81988508
:10294000009148021091490220914A0230914B02B5
:10295000601771078207930751F0609348027093E4
:10296000490280934A0290934B020E94B510DF9176
:10297000CF911F910F9108950E94AF1F0E940F0EDB
:102980000E94BC1F08950E94C11F0E94200E0E9439
:10299000DB1F08950E94B11B0E94951F0E94F70D36
:1029A0000E94BC140E94C3140E94050EFBCF90939A
:1029B000AB018093AA010895282F35EB2303C001B2
:1029C000112497FF04C080589109892F08958058D9
:1029D0009F4FFBCF80915E0280FF0DC06091200170
:1029E00070E0660F771F6038710570F5611571052D
:1029F00069F1862F089581FF07C06091200184E06E
:102A0000689FB0011124EFCF6091200182FD0AC0C0
:102A100080915D028823A9F020911F01609120011F
:102A2000821710F088E0ECCF869FC001112433E0BC
:102A3000880F991F3A95E1F7622F70E00E94EB240E
:102A4000D2CF68E070E0D5CF8FE7089581E0089598
:102A500080915E0280FF0CC060911C0170E0759552
:102A60006795759567956115710549F1862F0895EC
:102A700081FF06C060911C0170E075956795F3CFEA
:102A800060911C0182FD0BC090915C029923A1F022
:102A900060911B0180911C01961738F0682F70E03F
:102AA0006038710500F38FE70895899FC0011124F4
:102AB00070E00E94EB24F4CF61E070E0D7CF81E0BA
:102AC00008958D3C31F40E94EA148195809362024E
:102AD00008958E3C19F40E94EA14F8CF8F3C31F42B
:102AE0000E94EA148195809361020895803D19F453
:102AF0000E94EA14F8CF893D29F40E94281580939A
:102B0000630208958A3D21F40E9428158195F7CF2C
:102B10008B3D31F40E9428158195809364020895BD
:102B20008C3D19F40E942815F8CF9FE2980F983039
:102B300070F4815D990B21E030E001C0220F8A958D
:102B4000EAF780916002822B8093600208958D3DA8
:102B500031F480915E02816080935E0208958E3D23
:102B600021F480915E028260F7CF8F3DB9F78091AA
:102B70005E028460F1CF409161028D3C59F48091F6
:102B8000620287FF0DC01092620241110BC01092C9
:102B90005D0208C08E3C81F48091620218169CF39D
:102BA000442381F08091630290916402892B09F0A3
:102BB0005AC010925C0208958F3C49F447FFF0CF51
:102BC00010926102809162028111ECCFE0CF803DD2
:102BD00019F41416ACF3E4CF90916302893D29F403
:102BE0001916F4F610926302DBCF8A3D19F497FFB1
:102BF000D7CFF8CF909164028B3D29F497FFD0CFC7
:102C000010926402CDCF8C3D19F41916CCF3C8CFC5
:102C10009FE2980F983090F4815D990B21E030E0AD
:102C2000B90102C0660F771F8A95E2F7CB01809544
:102C300090916002892380936002B2CF8D3D31F480
:102C400080915E028E7F80935E02AACF8E3D21F43A
:102C500080915E028D7FF7CF8F3D09F0A1CF8091EB
:102C60005E028B7FF0CF08950E94181C9C0190910A
:102C7000610280916202982B21F030935B022093D5
:102C80005A029091630280916402982B21F0309354
:102C90005902209358028FE592E00E94991A0895F4
:102CA00086E0EFE5F2E0DF011D928A95E9F71092E8
:102CB0005D0210925C0210925E020895FC01828116
:102CC00081110EC0838181110BC08481811108C0E4
:102CD00091E08581811101C090E0892F8170089574
:102CE00081E0FCCFA6E0B0E0E8E7F6E10C94142523
:102CF00086E0EFE5F2E0DE01119601900D928A95F3
:102D0000E1F7109261021092620210926302109237
:102D100064028B819C81892B89F080915A02909169
:102D20005B020E94301CAC0190915D029923C9F1B5
:102D3000809121018417150608F440C08D819E8181
:102D4000892B91F080915802909159020E94301C79
:102D5000AC0190915C02992309F46AC080911D0135
:102D60008417150608F472C0BE016F5F7F4F8FE5B0
:102D700092E00E94461B811105C08FE592E00E94FF
:102D80005E1681110E94341686E0FE013196AFE591
:102D9000B2E001900D928A95E1F72696E3E00C945B
:102DA0003025209122018AE0289F900111242417C8
:102DB000350720F69F5F90935D0202C09F3FD1F7D9
:102DC0001B81112359F00E94EA149FEF11160CF495
:102DD00091E0899F802D1124809361021C81112331
:102DE00059F00E94EA149FEF11160CF491E0899FAC
:102DF000802D11248093620280916102882309F45E
:102E00009DCF10916202112309F498CF0E94DC1427
:102E1000882351F080936102812F0E94DC14882363
:102E200029F0809362028ACF81E0F4CF81E0F9CF6C
:102E300020911E018AE0289F900111242417350754
:102E400008F092CF9F5F90935C0202C09F3FD1F742
:102E50001D81112359F00E9428159FEF11160CF4C3
:102E600091E0899F802D1124809363021E8111239C
:102E700059F00E9428159FEF11160CF491E0899FDC
:102E8000802D11248093640280916302882309F4C9
:102E90006BCF10916402112309F466CF0E94DC14F9
:102EA000882351F080936302812F0E94DC148823D1
:102EB00029F08093640258CF81E0F4CF81E0F9CF0C
:102EC0000895FC01680F791F8FEF91E3E617F7076C
:102ED00009F408952191822728E030E087FF06C099
:102EE000880F892721503109C9F7F0CF880FFACF11
:102EF000CF93DF93EC01FB018581882309F4D2C0D5
:102F00009E0130572332310508F0B2C00E94230DD4
:102F10009093850280938402FE01E150F047E232F3
:102F2000F10520F4EA53FA4D0C94FF2480918402B9
:102F300081608093840293C0809185028860809331
:102F400085028DC0809184028260F3CF80918402DB
:102F50008460EFCF809184028860EBCF80918502FE
:102F60008160EDCF809185028260E9CF80918402FB
:102F70008061DFCF809184028062DBCF8091840208
:102F80008064D7CF0E947A07809184028068D1CF75
:102F9000809184028C60CDCF809185028360CFCFF9
:102FA000809184028E7FC5CF80918502877FC7CFB5
:102FB000809184028D7FBDCF809184028B7FB9CFB9
:102FC00080918402877FB5CF809185028E7FB7CFB5
:102FD000809185028D7FB3CF809184028F7EA9CFAF
:102FE000809184028F7DA5CF809184028F7BA1CFB9
:102FF0000E947A07809184028F779BCF8091840210
:10300000837F97CF809185028C7F99CF80918402B6
:1030100082FB992790F921E0922790FB82F990FB9F
:1030200083F987CF80918502982F909591708E7F3C
:10303000892B90FB81F983CF90918402892F8F7B1C
:1030400096FF806476CF0E947A0790918402892F40
:1030500097FB87F980586DCF81E00E94AF0D80917A
:103060008402909185020E94280D0E947A0780E0D8
:10307000DF91CF91089580E0F0CF90918402892F65
:103080008F7E94FF806155CF90918402892F8E7F2F
:1030900090FF81604ECF90918502892F877F93FFAB
:1030A00088604DCF81E0E4CF8B3109F465C040F5F5
:1030B0008B3071F078F4863009F447C020F4853005
:1030C00059F180E00895873009F448C08830C9F785
:1030D00081E00895803109F45DC068F48E3089F78D
:1030E00090913602892F8B7F92FF84608093360205
:1030F00082FD4CC0EDCF863159F3893149F3E1CFE0
:103100008A3201F160F48732B1F020F48E31C8F2D6
:103110008D514CC08932A9F60E942803D9CF83343F
:1031200040F48A3308F041C0853329F0883381F2B6
:10313000C8CF833431F681E090E00E94C7070E9437
:103140007A07C6CF0E94AC0DC3CF80913602807F34
:103150008093360281E08093680208959091360250
:10316000892F8E7F90FF81608093360280FDB0CFE3
:10317000817F80933602ACCF90913602892F8D7F6C
:1031800091FF82608093360281FFA2CF8091360248
:103190008160EFCF90913602892F877F93FF8860FF
:1031A0008093360283FDF2CF93CF895321E030E044
:1031B000A90102C0440F551F8A95E2F7CA01BDCF8D
:1031C00080E008950E94E0180895CF93C82F809161
:1031D00068028130B9F0882331F08230A1F1109279
:1031E000680280E00DC00E940D0C8232D1F78C2F56
:1031F0000E94E01881111BC08C2F0E94541881700E
:10320000CF9108950E940D0C823289F38C2F0E9479
:10321000E21881110AC0C43199F060F4CB3029F072
:10322000C03169F782E08093680281E0E8CF81E0F5
:1032300090E0E5CFC93221F0C833B9F380E0DFCFA9
:1032400010926802FBCFC93209F440C0F0F4C431D7
:10325000E9F1A8F481E0C73099F68093220184E176
:10326000809321018AE0809320018EE180931F01E9
:1032700088E080931C0188E280931B0104C082EEE9
:103280008C0F8A3070F181E0BBCFC03509F450C09B
:10329000B8F48AE0CF34B9F7E0916502F0916602A4
:1032A000309789F32081082E000C990B820F911D15
:1032B0008F3F910509F00CF43FC08FEF8083E3CF7F
:1032C000C135C1F181E0C23539F39ACF80916702EF
:1032D0008823C9F21092670210926602109265026A
:1032E000D2CFCD51C0936702C330C9F048F4C1308A
:1032F00099F081E291E0C23051F010926702C3CFA1
:10330000C53099F078F08BE191E0C630B1F7909339
:10331000660280936502B7CF82E291E0F8CF80E247
:1033200091E0F5CF8FE191E0F2CF8CE191E0EFCF2A
:1033300086EFB2CF8FEFB0CF97FFC0CF1082A3CF71
:10334000CF93DF93EB0186319C4711F50E940D0C62
:103350009D81992399F08A7A91E009F490E0909305
:103360006902811109C089E20E94E50B0E94660C86
:1033700080E0DF91CF91089585E3F6CF80916902D7
:10338000811104C089E20E94ED0BF0CF85E3FBCFF1
:1033900081E0EFCF0F931F93CF93DF93C42FD22FF2
:1033A000FC0185818823C9F040936C020E94181C9F
:1033B00090936B0280936A0280E28C0F883040F415
:1033C000C77081E001C0880FCA95EAF70E94260500
:1033D000DF91CF911F910F91089510916C021413FA
:1033E00032C080916A0290916B020E94301C883C2E
:1033F000910548F5C0E2CD0F1D17B9F080E2810FAD
:10340000883040F4177081E001C0880F1A95EAF700
:103410000E942D05C83048F481E09D2F977001C0AF
:10342000880F9A95EAF70E942605802F0E941D05B5
:10343000C83070F6D77081E001C0880FDA95EAF7DE
:103440000E942D05C5CF80E28C0F883008F6C7702A
:1034500081E001C0880FCA95EAF7F2CF0F93DB0134
:1034600088519C4787309105A0F5FC01E851FA4D41
:103470000C94FF2406E221EE41EE6AE17CE7CD01E7
:103480000E94CA1980E00F91089507E225EE45EEEB
:103490006BE17CE7F4CF06E221EE40EE68E17CE7E9
:1034A000EECF07E225EE44EE69E17CE7E8CF06E2E5
:1034B00021EE42EE6CE17CE7E2CF07E225EE46EE3C
:1034C0006DE17CE7DCCF08E221E045EE6EE17CE7D0
:1034D000D6CF15968C91882319F010926C02D3CF19
:1034E00081E0D1CF909373028093720208950E947D
:1034F000BE12811103C080916D020895E0917202A5
:10350000F0917302309729F00190F081E02D099538
:10351000089580E008950E94771A0895E09172025C
:10352000F0917302309721F00280F381E02D09952C
:103530000895E0917202F0917302309739F022E021
:10354000DC012C930480F581E02D09950895A3E01A
:10355000B0E0EDEAFAE10C9415252091700230916B
:10356000710228173907A1F09093710280937002BD
:10357000E0917202F0917302309751F023E02983B9
:103580009B838A830680F781E02DCE010196099501
:103590002396E2E00C943125A3E0B0E0E2EDFAE1FD
:1035A0000C94152520916E0230916F02281739076F
:1035B000A1F090936F0280936E02E0917202F091FD
:1035C0007302309751F024E029839B838A8306801D
:1035D000F781E02DCE01019609952396E2E00C9447
:1035E00031259C012E5F3F4FAC01485F5F4F80E06B
:1035F0002417350709F40895F90191919F01992342
:10360000B9F38F5FF5CF662349F0FC013296089637
:103610002191261729F0E817F907D1F780E00895DE
:1036200081E008959C01FC0132969FEF80E041917A
:10363000461751F09F3F19F4411101C0982F8F5F39
:103640008630A9F79F3F09F40895290F311D97FD92
:103650003A95F90162830895FC013296089621910A
:10366000261303C0DF0111971C92E817F907B9F779
:1036700008950E94121B08950E942C1B0895029623
:1036800026E0FC0111922A95E9F70895DC01FB017F
:1036900011969C9111978181981322C012968C915A
:1036A0001297882319F0928189131AC013968C916E
:1036B0001397882319F09381891312C015968C9162
:1036C0001597882319F0958189130AC014969C9147
:1036D000992321F081E02481291303C080E001C0F7
:1036E00081E08170089508950E94731B08958111EF
:1036F00006C081E0809374020E94741B089582E0EA
:10370000F9CF83E0809374020E94741B08950E9495
:10371000771B089581E0809374020E94741B0895C2
:103720000E948A1B0895089508950E94941B08958D
:10373000089508950E94931B0895CF930E94981BAB
:103740000E9442120E94991BC0E08C2F0E9415110A
:10375000811105C0CF5FC830C1F7CF91089581E0D6
:10376000FCCF85B7806885BF85B7806885BF089521
:103770001F921FB61F9211248F939F93AF93BF93F5
:1037800080917502811113C08091980290919902E5
:10379000A0919A02B0919B024196A11DB11D809308
:1037A000980290939902A0939A02B0939B02BF91C2
:1037B000AF919F918F911F901FBE1F901895809180
:1037C000A002843031F10E9488031092750288E1D2
:1037D00090E020E40FB6F894A895809360000FBEA7
:1037E0002093600083B7817F846083BF83B781604B
:1037F00083BF7894889583B78E7F83BF0FB6F89484
:10380000A8958091600088618093600010926000AC
:103810000FBE08950E947A070E948D03089582E0EA
:1038200084BD93E095BD9AEF97BD80936E00089597
:103830002FB7F8948091980290919902A0919A02E2
:10384000B0919B022FBF08952FB7F8946091980212
:103850007091990280919A0290919B022FBF0895D6
:103860009C014FB7F8948091980290919902A09191
:103870009A02B0919B024FBF821B930B0895CF9287
:10388000DF92EF92FF922FB7F894C0909802D090F9
:103890009902E0909A02F0909B022FBFA701960137
:1038A000261B370B480B590BCA01B901FF90EF904B
:1038B000DF90CF90089578941F921FB61F92112425
:1038C0008F939F93AF93BF938091980290919902A9
:1038D000A0919A02B0919B020196A11DB11D809307
:1038E000980290939902A0939A02B0939B02BF9181
:1038F000AF919F918F911F901FBE1F90189587E7E2
:1039000097E7909301088093000888E19AE00FB64A
:10391000F894A895809360000FBE90936000FFCF4D
:1039200088E19AE00FB6F894A895809360000FBEE6
:1039300090936000FFCF8EE1489B02C08150E1F779
:10394000489BFECF0895589880E28A95F1F7589ADF
:103950000895FC013BE03A95F1F798E020E080E023
:1039600031E040E14A95F1F7880F489B02C0816041
:10397000232742E04A95F1F7000040E14A95F1F72C
:10398000915079F790E19A95F1F799B132E03A9533
:10399000F1F7000040E14A95F1F7917092272081FC
:1039A000920F90830895A1E0B0E0E9EDFCE10C9462
:1039B000112519828C017C01E60EF11C0E151F05E4
:1039C00041F481E09981911180E02196E6E00C9428
:1039D0002D250E949B1CCE0101960E94A91CF80176
:1039E00081938F01EBCF509A589A08955098589A26
:1039F000E89AE9E6F0E080818C7F80830895615049
:103A0000770B91E001C0990F6A95EAF720E031E069
:103A1000911108C0222391F0589A80E28A95F1F71B
:103A200058980895492F482339F0589A232740E29F
:103A30004A95F1F79695ECCF5898F9CF5898EDCF75
:103A4000FF920F931F93CF93DF93EC018C01060F2E
:103A5000111DC017D10729F4CDB7DEB7E5E00C94EE
:103A60002E25F9900E94A31C68E08F2D0E94FF1C58
:103A7000F0CF1F920F920FB60F9211240F931F9346
:103A80002F933F934F935F936F937F938F939F9366
:103A9000AF93BF93EF93FF93CF93DF930F92CDB785
:103AA000DEB719820E949B1CCE0101960E94A91CC0
:103AB000082F069506950695282F22952570902F9C
:103AC0009570290F922F937026952695920F98271F
:103AD00097708981982B09F05CC0043008F059C0B8
:103AE00080E18A95F1F7589A509A82E08A95F1F729
:103AF00000C0589888E0089F80011124D801AD5F6C
:103B0000BE4F1696ED91FC9117973097A9F06091F2
:103B1000A8017091A90114962D913C911597260F3B
:103B2000371F11968D919C911297680F791F1396EC
:103B30004C9113978C910995F801ED5FFE4F6381CD
:103B4000662351F02091A8013091A90184819581CB
:103B5000820F931F0E94201D0E94A31C80E18A9562
:103B6000F1F758985098589A80E18A95F1F7F80142
:103B7000ED5FFE4F6081662351F02091A8013091E6
:103B8000A90181819281820F931F0E94D31C0E9400
:103B90009B1C0F90DF91CF91FF91EF91BF91AF915F
:103BA0009F918F917F916F915F914F913F912F9155
:103BB0001F910F910F900FBE0F901F9018950F93AC
:103BC0001F93CF93DF93EC0104970CF04CC0F89453
:103BD000509A589885E08A95F1F700009C2F9695A9
:103BE00095708C2F8570980F892F83709695969578
:103BF00023E0CC0FDD1F2A95E1F7980F8E01092BEA
:103C00000E94A31C00C068E0802F0E94FF1C80E17E
:103C10008A95F1F75098589A489B1EC087E090E02B
:103C200048991CC0FE01ED5FFE4F63816623F9F0E9
:103C30002091A8013091A90184819581820F931F61
:103C40000E94D31C811113C0509A589A7894DF9126
:103C5000CF911F910F91089500C0DECF019729F4F5
:103C6000509A589A789480E0F2CF00C0D9CF0E9441
:103C70009B1C80E28A95F1F75898509A80E18A95CA
:103C8000F1F7CD5FDE4F6881662351F02091A801E6
:103C90003091A90189819A81820F931F0E94201D72
:103CA0000E94A31C789481E0D2CF80917E02089577
:103CB0009B01BA019091A0029430E9F48F70809337
:103CC000E9009FEF8091E800915085FD06C085EDE9
:103CD0008A95F1F700009111F5CF8091E80085FFFA
:103CE0000AC050E040E0C9010E9452208091E800E3
:103CF0008E778093E800089543E050E0BC0182E0B5
:103D00000E94581E089546E050E0BC0182E00E94E7
:103D1000581E0895CF93DF93EC0148E050E0BC01BA
:103D200081E00E94581E88E0FE01A6E7B2E0019003
:103D30000D928A95E1F7DF91CF91089580919F02CE
:103D4000811109C00E94E2210E943F228091E2007D
:103D500084608093E200089510929F0208950E946B
:103D60008A1B089560919C0281E0611101C080E08E
:103D70000E94811B08959091A00281E0943009F087
:103D800080E060919C020E94871B089542E061ECF4
:103D900081E00E945E2142E261EC82E00E945E21AD
:103DA0009091A00281E0943009F080E060919C0243
:103DB0000E94771B08958091A202833009F461C0AC
:103DC00030F48130D1F1823009F49EC008958A30F8
:103DD00009F48AC08B3009F46FC0893009F050C0F3
:103DE0008091A102813209F04BC08091A50290918F
:103DF000A602029708F044C08091E800877F809374
:103E0000E8008091E80082FF37C09091F300809134
:103E1000F200029731F48091F100813011F0863088
:103E200021F48091F10080937E028091E8008B77ED
:103E30008093E8000E94922123C08091A102813AE0
:103E4000F9F48091E800877F8093E8008091A502D3
:103E50009091A602892B61F468E086E792E070E019
:103E60000E94A1208091E8008B778093E80008955C
:103E700060E090E080E0F3CF8091A0028111C1CF9B
:103E800008958091A102813AD9F78091A50290917D
:103E9000A602892BA9F78091E800877F8093E8002C
:103EA0008091E80080FFFCCF80912B018093F1008E
:103EB0008091E8008E77BCCF8091A102813201F71A
:103EC0008091A5029091A602892BD1F68091E800FD
:103ED000877F8093E8000E9492218091A3028093C3
:103EE0002B010E947A0708958091A102813241F648
:103EF0008091E800877F8093E8000E949221809162
:103F0000A40280937F0208958091A102813A09F072
:103F1000B7CF8091E800877F8093E8008091E80028
:103F200080FFFCCF80917F02C1CF84B7877F84BFA1
:103F30000FB6F894A8958091600088618093600026
:103F4000109260000FBE80E890E00FB6F894809366
:103F50006100909361000FBE0E94901B08950E9423
:103F6000E2210E943F22E2EEF0E0808184608083C3
:103F700078940E94BE24089583E291E00E94721A10
:103F800008958091A002853031F48091A00285309F
:103F900019F00E940A1C08950E94DF1B80919E0266
:103FA000882399F30E949D1B882379F30E943C206B
:103FB0000E947A07EACF08959A014091A702509192
:103FC000A8020E94E41F0895492F55274330510548
:103FD00019F168F44130510509F444C042305105EB
:103FE00009F445C090E080E050E040E025C0413257
:103FF000510549F142325105A9F784E490E04EEAB7
:1040000054E061157105C1F08BE790E043E354E0A3
:104010006130710589F0E6CF99278130910581F0F3
:10402000009729F00297F1F6ECEAF3E002C0E2EE25
:10403000F3E0849190E0AF01F9015183408308954A
:10404000EAECF3E0F6CF89E090E048EF53E0611549
:10405000710591F389E090E041E154E06130710530
:1040600059F3C0CF82E190E041E254E0E5CF8BE329
:1040700090E046EE53E0E0CF80E189BD82E189BD6A
:1040800009B400FEFDCF8091D8008F7D8093D800C9
:104090008091E00082608093E0008091E00081FDEB
:1040A000FCCF0895AF92BF92CF92DF92FF920F9311
:1040B0001F93CF93DF936C01EB018A010E94B12122
:1040C000F82E811123C00115110539F0F801808106
:1040D0009181C81BD90BC80ED91EB12CA12C2097D9
:1040E000A9F08091E80085FD22C08091E8008E77DC
:1040F0008093E80001151105A1F0F80180819181FC
:10410000A80EB91EB182A08285E0F82E8F2DDF9116
:10411000CF911F910F91FF90DF90CF90BF90AF9004
:1041200008950E94B1218823D1F2F82EEFCFF60135
:1041300081916F018093F1002197FFEFAF1ABF0AC1
:10414000CECFFC018091A7029091A8028617970715
:10415000A0F06115710529F49091E8009E77909385
:10416000E80090E06115710551F4911108C080914B
:10417000E80082FF34C080E00895BC01F2CF809156
:10418000A0028823C1F18530C1F18091E80083FD50
:1041900030C08091E80082FDEACF8091E80080FF86
:1041A000E1CF8091F3002091F200382F6115710565
:1041B00019F02830310558F091E02830310509F028
:1041C00090E02091E8002E772093E800CBCF8191FA
:1041D0008093F100615071092F5F3F4FE7CF8091CD
:1041E000A002882341F0853041F08091E80083FFF0
:1041F000BECF81E0089582E0089583E00895FC0138
:104200008091A7029091A80286179707A0F06115E8
:10421000710529F48091E8008E778093E80090E0A2
:104220006115710551F4911108C08091E80082FF79
:1042300035C080E00895BC01F2CF8091A0028823B0
:10424000C9F18530C9F18091E80083FD31C08091CA
:10425000E80082FDEACF8091E80080FFE1CF809105
:10426000F3002091F200382F6115710519F0283004
:10427000310558F091E02830310509F090E0809147
:10428000E8008E778093E800CBCF84918093F10093
:104290003196615071092F5F3F4FE6CF8091A002A8
:1042A000882341F0853041F08091E80083FFBDCF45
:1042B00081E0089582E0089583E00895982F973073
:1042C00028F08F708093E90081E008959093E900D1
:1042D000242F762F50E0981731F07091EC00209148
:1042E000ED005091F00021FD02C09F5FE8CF3091BA
:1042F000EB003E7F3093EB003091ED003D7F30933B
:10430000ED003091EB0031603093EB007093EC00E6
:104310002093ED005093F0002091EE0027FDE5CFB3
:1043200080E008958091A10287FF13C08091E8008A
:1043300082FF06C08091E8008B778093E80004C07C
:104340008091A0028111F2CF08958091A00288236C
:10435000D9F38091E80080FFF8CF8091E8008E7754
:10436000ECCF2091E4003091E50095E6A901209181
:10437000EC00822F817020FF06C08091E80080FF52
:1043800006C080E008952091E80022FD1AC08091C7
:10439000A002882389F0853089F08091EB0085FDAB
:1043A0000FC02091E4003091E50042175307F9F265
:1043B0009150E1F684E0089582E0089583E0089545
:1043C00081E008950E9451220E945922E0EEF0E01F
:1043D000808181608083E8EDF0E080818F77808349
:1043E00019BCA7EDB0E08C918E7F8C9380818F7E7D
:1043F000808310929F0208950F931F93CF93DF93B2
:104400000E9451220E945922C8EDD0E088818F7706
:10441000888388818068888388818F7D888319BCA0
:104420001092A00210929C0210929E0210929D0285
:1044300000EE10E0F80180818B7F808388818160AD
:10444000888342E060E080E00E945E21E1EEF0E0DF
:1044500080818E7F8083E2EEF0E0808181608083C6
:10446000808188608083F80180818E7F808388814D
:1044700080618883DF91CF911F910F910895E8EDBE
:10448000F0E080818F7E8083E7EDF0E080818160C5
:10449000808384E082BF81E080939F020E94FC21A0
:1044A0000895E8EDF0E080818E7F80831092E20035
:1044B00008951092DA001092E10008951F920F9271
:1044C0000FB60F9211242F933F934F935F936F93E7
:1044D0007F938F939F93AF93BF93EF93FF938091BD
:1044E000E10082FF0BC08091E20082FF07C0809153
:1044F000E1008B7F8093E1000E94BD248091DA006F
:1045000080FF19C08091D80080FF15C08091DA002B
:104510008E7F8093DA008091D90080FF96C080E181
:1045200089BD82E189BD09B400FEFDCF81E08093A1
:10453000A0020E949E1E8091E10080FF19C0809120
:10454000E20080FF15C08091E2008E7F8093E20040
:104550008091E20080618093E2008091D8008062C7
:104560008093D80019BC85E08093A0020E94B21EFF
:104570008091E10084FF2BC08091E20084FF27C07E
:1045800080E189BD82E189BD89B5982F917080FF56
:10459000FBCF8091D8008F7D8093D8008091E1007F
:1045A0008F7E8093E1008091E2008F7E8093E20015
:1045B0008091E20081608093E20080919C028823D8
:1045C00009F449C084E08093A0020E94BB1E809140
:1045D000E10083FF29C08091E20083FF25C0809124
:1045E000E100877F8093E10082E08093A002109237
:1045F0009C028091E1008E7F8093E1008091E20037
:104600008E7F8093E2008091E20080618093E200DF
:1046100042E060E080E00E945E218091F0008860CE
:104620008093F0000E94AF1EFF91EF91BF91AF9178
:104630009F918F917F916F915F914F913F912F91BA
:104640000F900FBE0F901F90189519BC1092A002EA
:104650000E94AC1E70CF8091E30087FD93E09093A1
:10466000A002B3CF1F920F920FB60F9211242F9377
:104670003F934F935F936F937F938F939F93AF93EA
:10468000BF93CF93DF93EF93FF93D091E900DF7057
:104690008091EC00C82FC17080FDC0E81092E90045
:1046A0008091F000877F8093F00078940E947623B9
:1046B0001092E9008091F00088608093F000CD2B8B
:1046C000CF70C093E900FF91EF91DF91CF91BF913F
:1046D000AF919F918F917F916F915F914F913F919A
:1046E0002F910F900FBE0F901F901895AAE2B0E087
:1046F000ECE7F3E20C94142581EA92E02091F100BA
:10470000FC012193CF01F2E0893A9F07B9F70E949B
:10471000DB1E8091E80083FF1EC18091A102909171
:10472000A2029A3008F017C1E92FF0E0E151FA4DEA
:104730000C94FF24803899F0823809F00CC18091E4
:10474000A5028F70873008F006C18093E900809140
:10475000EB0085FB882780F91092E90006C0809164
:104760009D0290919E02911182609091E800977F46
:104770009093E8008093F1001092F1008091E8009E
:104780008E77E5C0882309F4D3C0823009F0E3C0F6
:104790008091A3028111D6C08091A5028F702FEF66
:1047A000280F263008F0D7C08093E9002091EB0055
:1047B00020FFC8C0933031F48091EB008062809379
:1047C000EB00C0C09091EB0090619093EB0021E072
:1047D00030E001C0220F8A95EAF72093EA00109298
:1047E000EA008091EB008860EACF8111B4C010919B
:1047F000A3021F778091E3008078812B8093E300F0
:104800008091E800877F8093E8000E949221809148
:10481000E80080FFFCCF8091E30080688093E30094
:1048200082E0111183E08093A00295C0805882300D
:1048300008F091C08091A3029091A4028C3D23E0E6
:104840009207A1F583E08A838AE289834FB7F894BF
:10485000DE01139620E03EE051E2E32FF0E05093BA
:104860005700E49120FF03C0E295EF703F5FEF70C7
:104870008E2F90E0EA30C0F0C7968D939D932F5F06
:10488000243159F74FBF8091E800877F8093E8007B
:104890006AE270E0CE0101960E94A1208091E800BA
:1048A0008B778093E80057C0C096E7CF6091A50250
:1048B0007091A602AE014F5F5F4F0E94DC1FBC01EA
:1048C000892B09F448C09091E800977F9093E80005
:1048D00089819A810E94FF20E1CF8038E1F58091A3
:1048E000E800877F8093E80080919C028093F1002C
:1048F00045CF811130C09091A302923060F5809134
:10490000E800877F8093E80090939C020E949221A8
:1049100080919C02882311F084E005C08091E3001F
:1049200087FDFACF81E08093A0020E94C61E13C0CB
:104930008091A302813079F481E0933009F080E026
:1049400080939E021092E9008091E800877F809317
:10495000E8000E9492218091E80083FF0AC08091C4
:10496000E800877F8093E8008091EB00806280936D
:10497000EB00AA96E3E00C9430250895CF93809144
:10498000A0028823A1F0C091E900CF709091EC00C3
:10499000892F817090FD80E8C82B1092E9008091EA
:1049A000E80083FD0E947623CF70C093E900CF9189
:1049B00008950E94E2211092A0020895E8EDF0E02F
:1049C0008081806180838AE18A95F1F700C08091BF
:1049D000D9008170089597FB072E16F4009407D034
:1049E00077FD09D00E943C2507FC05D03EF4909548
:1049F00081959F4F0895709561957F4F0895EE0FB3
:104A0000FF1F0590F491E02D09942F923F924F9251
:104A10005F926F927F928F929F92AF92BF92CF924E
:104A2000DF92EF92FF920F931F93CF93DF93CDB757
:104A3000DEB7CA1BDB0B0FB6F894DEBF0FBECDBFCF
:104A400009942A88398848885F846E847D848C84A0
:104A50009B84AA84B984C884DF80EE80FD800C81A9
:104A60001B81AA81B981CE0FD11D0FB6F894DEBF8C
:104A70000FBECDBFED010895AA1BBB1B51E107C0BE
:104A8000AA1FBB1FA617B70710F0A61BB70B881FDE
:104A9000991F5A95A9F780959095BC01CD0108956D
:104AA000FB01DC0104C08D910190801921F441507B
:104AB0005040C8F7881B990B0895FB01DC0102C028
:104AC00001900D9241505040D8F70895F999FECFCA
:104AD00092BD81BDF89A992780B50895A8E1B0E00C
:104AE00042E050E00C94AA25DC01A40FB51F415010
:104AF000504048F0CB01840F951F2E910E948525D0
:104B000041505040D0F70895262FF999FECF92BD1D
:104B100081BDF89A019700B4021639F01FBA20BD82
:104B20000FB6F894FA9AF99A0FBE08950396272FB4
:104B30000E9485250E948425252F0E948525242FEB
:104B40000C9485250196272F0E9485250C94842599
:104B5000DC01CB01FC01F999FECF06C0F2BDE1BD3D
:104B6000F89A319600B40D9241505040B8F708952C
:104B7000F894FFCF73057305C305C30528064406E3
:104B8000A205A2054906BA06C906C906D0174418E7
:104B9000D817A217A617DC17AA17E017EC17B61735
:104BA0003D18BA17F017BE17F4171C18C217F817DC
:104BB0002318C817FE170618AE17E417B217E81720
:104BC000CC17021812182C183B189C17D4174B1826
:104BD0004B1A511A3A1A451A571A5D1A631A9A2330
:104BE000C223AB24C223AB24F5231624AB246D24AB
:024BF000792426
:104BF2001A02010000000100000000000000040190
:104C02000000000405000000000000280850011EFA
:104C12000A1401551E8A1E831E7C1E01E200E90051
:104C2200EA00B500B600B700CD008301CC008A01CE
:104C32009201940121022302240225022602270264
:104C42002A02B300B4006F0070009F01CB019F02E3
:104C5200A002818283E200E900EA00B500B600B753
:104C620000CD008301CC008A01920194012102232C
:104C72000224022502260227022A02B300B4006F90
:104C82000070009F01CB019F02A002818283F6F790
:0A4C92003133323697C634353F0245
:00000001FF
